:020000040000FA
:10000000F0090020F50000000F01000011010000C0
:1000100000000000000000000000000000000000E0
:1000200000000000000000000000000013010000BC
:100030000000000000000000150100001701000092
:10004000190100001901000019010000110200004F
:100050001901000000000000190100001901000052
:100060001901000019010000190100001901000028
:100070001901000019010000190100001901000018
:100080001901000019010000190100001901000008
:1000900019010000190100001901000019010000F8
:1000A000190100001901000000000000000000001C
:1000B0000000000000000000000000000000000040
:1000C0000348854600F056F8004800471105000037
:1000D000F0090020401E00BF00BF00BF00BF00BFEE
:1000E00000BF00BF00BF00BF00BF00BF00BFF1D115
:1000F000704700000321094802680A43026008486B
:1001000002680A4302600748804707480047FEE745
:10011000FEE7FEE7FEE7FEE7FEE7000024050040FD
:100120005405004045020000C100000003460B4397
:100130009B0703D009E008C9121F08C0042AFAD29D
:1001400003E00B780370401C491C521EF9D2704723
:10015000D2B201E00270401C491EFBD2704700225F
:10016000F6E710B513460A4604461946FFF7F0FFB6
:10017000204610BD064C0125064E05E0E36807CC7D
:100180002B430C3C98471034B442F7D3FFF79CFF45
:10019000501000007010000010B5002819DA1A4A3B
:1001A00003071B0F083B9B089B00D2588307DC0EFC
:1001B000FF23A3409A438B071B0E8407E40EA34042
:1001C0001A43114B0407240F083CA408A4001A5139
:1001D00018E00E4A03231B02D21883089B00D25852
:1001E0008307DC0EFF23A3409A438B071B0E840773
:1001F000E40EA3401A43054B032424021B19840870
:10020000A4001A5110BD00001CED00E000E100E068
:1002100010B50A48806801280FD1094840680421B8
:100220000840002809D000200449886000F016FC2E
:100230000446204600F0D0FD00BF10BD0031004054
:100240000033004010B500F02DF9002805D0074814
:1002500007494860C8130749886100F007F900287A
:1002600002D001200449886010BD0000DFFF07C0F4
:1002700000050040006C00400006004002E008C895
:10028000121F08C1002AFAD170477047002001E010
:1002900001C1121F002AFBD17047000000BF00BF40
:1002A00000BF00BF00BFBFF34F8F00BF00BF00BF44
:1002B00006480749C86000BF00BF00BFBFF34F8FAB
:1002C00000BF00BF00BF00E000BFFDE70400FA056B
:1002D00000ED00E070B503460C46002A01D10D4D3B
:1002E00000E015882846002110E00512060235437B
:1002F000A8B25D5C684005062D0F684005034540C7
:10030000A8B205062D0D6D006840491CA142ECD332
:1003100070BD0000FFFF000010B500F05DFA002086
:1003200010BD000070B505460C46802C02D9002097
:10033000C04370BDA007800F002802D00020C0433A
:10034000F7E700BF00F0CAFA0028FBD12246294691
:100350000448FFF7EBFE22460249842000F00AFB26
:10036000E7E700002800002070B5044600BF00F059
:10037000B5FA0028FBD125890A2221460C48FFF74F
:10038000D5FE6A000A480A30E168FFF7CFFE6A002E
:1003900007490A315018042221461031FFF7C6FEE2
:1003A000680002460E320249812000F0E3FA70BD77
:1003B0002800002010B5044600BF00F08FFA002886
:1003C000FBD1102221460448FFF7B0FE102202495B
:1003D000832000F0CFFA10BD2800002010B500BF28
:1003E00000F07CFA0028FBD100220249852000F0B1
:1003F000C1FA10BD2800002070B504460D46002249
:1004000029462046FFF766FF70BD0246081F05E03B
:1004100003685B1C002B00D002E0001F9042F7D85D
:1004200000BF031D981A704710B5002101220C4B24
:100430005A600C4B1A6000BF00BF0B4A1268002ABA
:10044000FBD00022084B1A60054A9268D4B20A46D3
:100450004B1CD9B284540429EEDB024A526810BD09
:1004600000D5004000D0004000D100400C48008C76
:10047000C0B2012812D10A48808C0007000F002862
:100480000CD10748806AF0210840402806D1044872
:10049000C06A0840002801D1012070470020FCE715
:1004A000C00F00F01948008CC0B201282CD11748A9
:1004B000808C0007000F002826D11448806AF021A4
:1004C0000840002806D11148C06A0840002801D120
:1004D000012070470D48806AF0210840102806D19D
:1004E0000A48C06A0840002801D10120F1E7074806
:1004F000806AF0210840302806D10448C06A0840CC
:10050000002801D10120E4E70020E2E7C00F00F05D
:1005100011201421032208E0930005242407072555
:100520002D02641985006351401C8842F4D900BF34
:100530001520182108E0032205231B0707242402A5
:100540001B1984001A51401C8842F4D900BF0F20A7
:10055000400519498860072003210522120703027C
:10056000D2188300D15000BF00F04AF8FFF7D4FE44
:1005700021E0072000F044F8142000F01FF80720C5
:1005800000F046F8022000F0BFFC7D20C00000F023
:1005900015F81820012383401946074B5B68C340B8
:1005A000DA07D20F002A02D1034B996001E0024B17
:1005B000D96000BF00BFDCE70005005001B505E0D1
:1005C0000098401E00900348FFF784FD0098002823
:1005D000F6D108BDE703000010B58A0005231B070C
:1005E000072424021B1984001A5110BD032105227F
:1005F000120707231B02D2188300D1507047000056
:1006000001218140014AD16070470000000500507F
:1006100001218140014A91607047000000050050AF
:1006200001218140014A916070470000000500509F
:1006300001218140014A916070470000000500508F
:10064000014600BFCA06D20E01209040024A106047
:1006500000BF00207047000080E200E0014600BFBC
:10066000CA06D20E01209040024A106000BF00204E
:100670007047000080E100E0014600BFCA06D20ECC
:1006800001209040024A106000BF00207047000027
:1006900000E100E070B504460D4629462046FFF70C
:1006A0007BFD002070BD0000014672B6074800784F
:1006B000002801D0012000E00020087003480078E5
:1006C000401C024A10700020704700000600002005
:1006D000014606480078401E044A1070002902D1E5
:1006E0000020107062B60020704700000600002055
:1006F00038B531480078314908702F480088000427
:10070000000E48702E480068C4012B480068001B8A
:10071000802808D92B480068011980222748801DAD
:10072000FFF704FD16E024480068021B2548006816
:1007300001192248801DFFF7F9FC1F4A1268121B9D
:100740008023991A1C4A1268131B1C4A921D981880
:10075000FFF705FD00201949087148710022862124
:100760001648FFF7B7FD054614490D712812487168
:100770001549086801218140144AD16000BF00BFBB
:100780001349086811490969C140C907C90F0029FF
:10079000F6D10D480068FFF743FF09480068401C88
:1007A0000749086086200B4B024604490090002050
:1007B00000F072FA38BD000010000020B8000020E0
:1007C00014000020080000201C000020000500503C
:1007D000180000203E0100201CB5012168468170F0
:1007E00002214170032101700421C1700521417172
:1007F0000621017100F078F81CBDFFB581B00446F8
:1008000015461E460A9F00BF002D01D0012000E0C2
:10081000002000900098002806D100BF0022114659
:100820001046FFF73BFD00BF00BF00BF002E01D008
:10083000012000E0002000900098002806D100BFB1
:10084000002211461046FFF729FD00BF00BF00BF80
:10085000002F01D0012000E0002000900098002827
:1008600006D100BF002211461046FFF717FD00BF5A
:1008700000BF2C60002C01D0029800E000203080E6
:100880000020388005B0F0BD70B504460D4600BFAD
:10089000002C01D0012000E000200646002E06D1E9
:1008A00000BF002211461046FFF7F8FC00BF00BF52
:1008B00000BF002D01D0012000E000200646002EE0
:1008C00006D100BF002211461046FFF7E7FC00BF2B
:1008D00000BF00202060288070BD00000148007823
:1008E000704700002000002030B587B004461C226D
:1008F0001C496846FFF71AFCA078019060780290C6
:1009000020780390E0780490207917490860607996
:1009100016490860086803210522120707231B02F5
:10092000D2188300D15000BF10480068FFF778FE4E
:100930000D4A002110688A0005231B0707252D0298
:100940005B1985005A5100BF0220FFF737FE694648
:10095000002000F0BDF80649002000F065F80020F6
:1009600007B030BD30100000180000201C0000202F
:10097000D509000070B505460E4614460120400218
:10098000844202D90020C04370BD00BF0B480078EC
:100990000028FBD1012009490870094806600020A1
:1009A00008490860084804600848857008480078CD
:1009B0000649C870FFF79CFE0020E5E720000020F4
:1009C000080000201400002010000020B8000020C3
:1009D0000C00002001B568460078002804D00128EA
:1009E00003D0022815D113E013E00B480068C001C2
:1009F0000A490968884208D309480068401C084928
:100A0000086000200749087001E0FFF771FE00E070
:100A100000BF00BF08BD000014000020100000202F
:100A20000C00002020000020F8B506460C46304699
:100A300000F014F8054600BF002D01D0012000E0B1
:100A400000200746002F06D100BF002211461046A5
:100A5000FFF724FC00BF00BF2C62F8BD014601294E
:100A600004DA28204843024A801870470020FCE737
:100A7000C4010020FFB581B005460E46144600BFF4
:100A8000002C01D0012000E000200746002F06D1F5
:100A900000BF002211461046FFF700FC00BF00BF58
:100AA000256026710020A060A081E0812061A082E5
:100AB000E08260832083207720620021242001557A
:100AC000252001556846017C2620015505B0F0BD62
:100AD000F8B506460C46002C01D10E20F8BD304674
:100AE000FFF7BCFF054600BF002D01D0012000E04C
:100AF00000200746002F06D100BF002211461046F5
:100B0000FFF7CCFB00BF00BF002E0CD1E07E002819
:100B100001D0012000E0002003462A4603213F487F
:100B2000FFF7A8FF00E000BF00BF2069FFF780FDCE
:100B30002069FFF75BFD2069FFF77AFD6068FFF72A
:100B400055FDE068FFF752FD0021A068FFF744FD66
:100B5000207C28776068296805221202891888603D
:100B6000E06829688918C860A06829688918086140
:100B70002068296889184862A07E4000617E89004B
:100B80000843217E084329688918486500212868A0
:100B9000FF300130816000BF04202856FFF750FD70
:100BA0000746002F06D000BF002211463846FFF747
:100BB00075FB00BF00BF00BF217D04202856FFF752
:100BC00069FD0746002F06D000BF002211463846B7
:100BD000FFF764FB00BF00BF0020286204202968E3
:100BE000032212028918486000BF2856FFF744FD0F
:100BF0000746002F06D000BF002211463846FFF7F7
:100C00004DFB00BF00BF0120296805221202891890
:100C1000086002212420415500205FE70030004099
:100C2000F8B5044600BF002C01D0012000E00020F0
:100C300000900098002806D100BF002211461046FF
:100C4000FFF72CFB00BF00BFA668A789E589002E2F
:100C500003D0BD4201DA705D00E00020216805226A
:100C600012028918C861E089401C80B2E081054603
:100C7000208BA8420EDD002E03D0BD4201DA705D4C
:100C800000E000202168052212028918C861E0896D
:100C9000401CE081F8BD0000FFB583B01546039805
:100CA000FFF7DCFE044600BF002C01D0012000E06D
:100CB00000200746002F06D100BF00221146104633
:100CC000FFF7ECFA00BF00BF002002900026019061
:100CD0002620005D00280ED000BF01A8FFF7E4FC2D
:100CE0000746002F06D000BF002211463846FFF706
:100CF000D5FA00BF0FE000BF04202056FFF7AEFC7E
:100D00000746002F06D000BF002211463846FFF7E5
:100D1000C5FA00BF00BF2420005D022830D10C9826
:100D2000A84201DD0C9800E028460646002E24DD8E
:100D30000121242001550020608300212520015538
:100D4000268320460E30831E821F29460090049879
:100D5000FFF753FD20461630831E821F00900C992A
:100D60000698FFF74AFD207F01218140194AD16092
:100D700000BF2046FFF754FF04E00720029001E087
:100D8000112002902620005D00280FD000BF684689
:100D90000079FFF79DFC0746002F06D000BF002218
:100DA00011463846FFF77AFA00BF0FE000BF042073
:100DB0002056FFF761FC0746002F06D000BF002237
:100DC00011463846FFF76AFA00BF00BF029807B025
:100DD000F0BD000000050050F0B587B0044600BF2C
:100DE000002C01D0012000E0002001900198002893
:100DF00006D100BF002211461046FFF74FFA00BF90
:100E000000BF608B401C60832520005D002807D157
:100E1000012125200155628B0021204600F04EF86B
:100E200020680521090240188069C0B20690266931
:100E3000A08A0590E08A0490002E08D005990498B5
:100E4000884204DAE08A0699421CE2823154A7689B
:100E5000A0890390E589208B0290029885420FDAE1
:100E6000002F04D00398854201DA785D00E000206D
:100E70002168052212028918C861E089401CE081BE
:100E8000618B0298814217DB207FFFF7D1FBE0895D
:100E9000019021460C31081FFFF7F6FC2146143162
:100EA000081FFFF7F1FC02212420015501212046F3
:100EB000019A00F003F800BF07B0F0BDF8B5044692
:100EC0000D46164600BF002C01D0012000E0002096
:100ED0000746002F06D100BF002211461046FFF73B
:100EE000DDF900BF00BF206A002809D0054800686E
:100EF0000090684605704680216A0098884700BFC8
:100F0000F8BD00004C100000F0B58DB00546002083
:100F100009900A900B900C9008A805713B48FFF7C8
:100F200083FA1520FFF76CFB042D0ED1032636043F
:100F30000721C9033046FFF768FA044621463046C8
:100F4000FFF75AFA08900C9427E0022D15D10726D6
:100F5000F6030F2189033046FFF757FA044621466E
:100F60003046FFF749FA089008AA04212748FFF7FE
:100F7000B1F90890201D0B900FE0012D0DD1112625
:100F80003603032109043046FFF73FFA04462146A1
:100F90003046FFF731FA08900A9409A8FFF70AFAD9
:100FA0001B48FFF70BFB14221A4903A8FFF7BEF8F2
:100FB0006846018C818303A8FFF7D6F91648FFF72E
:100FC000FDFA029600270FE0E01B019001988028AF
:100FD00001D9802001900299C8190199FFF7A2F95F
:100FE0000F20FFF7EBFA8037A742EDD3022D06D191
:100FF00004210648FFF796F90F20FFF7DFFAFFF705
:10100000EDF91520FFF704FB0DB0F0BD0000002046
:10101000C40900001C100000DC050000FFFFFFFFFA
:10102000FFFFFFFF0100000004000020000000009F
:101030000000002000000000000000000000000090
:10104000000000000300000000000000020000009B
:101050007010000000000020280000007C0200004A
:101060009810000028000020C80900008C02000031
:1010700000000000FEFF0000000000000000000073
:101080000000000000000000000000000000000060
:08109000000000000024F40040
:04000005000000C136
:00000001FF
