:020000040001F9
:1080000040310020F58001000F8101001181010045
:108010000000000000000000000000000000000060
:1080200000000000000000000000000013810100BB
:108030000000000000000000158101001781010010
:108040001981010019810100898401001981010051
:108050001981010000000000458201001981010022
:1080600019810100198101001981010019810100A4
:108070001981010019810100198101001981010094
:10808000198101009D8301001981010019810100FE
:10809000BD830100198101001184010019810100D3
:1080A000198101001981010000000000000000009A
:1080B00000000000000000000000000000000000C0
:1080C0000348854600F08EF800480047F9B00100EB
:1080D00040310020401E00BF00BF00BF00BF00BFF6
:1080E00000BF00BF00BF00BF00BF00BF00BFF1D195
:1080F000704700000321094802680A4302600848EB
:1081000002680A4302600748804707480047FEE7C5
:10811000FEE7FEE7FEE7FEE7FEE70000240500407D
:108120005405004035840100C180010030B50B4684
:10813000014600202022012409E00D46D5409D4241
:1081400005D31D469540491B2546954040191546C7
:10815000521E002DF1DC30BD10B5431A934209D2F6
:108160008318881803E0401E01785B1E1970521EA8
:10817000F9D210BD03460B439B0703D009E008C9A1
:10818000121F08C0042AFAD203E00B780370401CC7
:10819000491C521EF9D210BDD2B201E00270401C3F
:1081A000491EFBD270470022F6E710B513460A4677
:1081B00004461946FFF7F0FF204610BD421C017827
:1081C000401C0029FBD1801A704730B504460020BE
:1081D000034600E05B1C934203D2E05CCD5C401B95
:1081E000F8D030BD064C0125064E05E0E36807CC0B
:1081F0002B430C3C98471034B442F7D3FFF764FF8D
:1082000034C5010054C5010030B58C180278401CFB
:1082100013071B0F01D10378401C120906D1027805
:10822000401C03E005780D70401C491C5B1EF9D111
:1082300001E00B70491C521EFBD1A142E6D3002085
:1082400030BD0000FEB50024FF250135012726467C
:108250000194284603F05AF900280AD03749012032
:108260004968B040014204D03548002128183C43F9
:1082700001602D1D7F00761CADB2042EE9D3FF20D6
:108280007D3003F043F9002807D02E48002101601B
:10829000400704432C48006901902C4F200713D05D
:1082A0000126002526420BD02948AA00111808698A
:1082B0000969C004C00E8903890FD219526890471A
:1082C00076006D1C042DEDD3002C34DA00241F4FF2
:1082D000012638194030007B8506AD0E80090090DC
:1082E000AE40284603F0B0F9002821D0284601F01E
:1082F000A5FC8000C0194768002F19D01549A800B7
:108300004018006801998003800F0E4202D00228B5
:1083100002D00DE003280BD10099032905D10228D2
:108320000AD00221284603F0E1F828460099B84710
:10833000641C062CCBD3FEBD0321F3E70063004091
:10834000006000407C610040000500500C280020C7
:1083500000650040000700508307FF22DB0E9A40B3
:108360008907090E994000280BDA0007000F08382A
:10837000830808489B001818C36993430B43C361E3
:108380007047830804489B001B18186890430843F3
:108390001860704700ED00E000E400E010B5064909
:1083A0000020086048608860C86003494039086060
:1083B000486003F017FF10BD40110140FEB50020DA
:1083C000C043124D02906869019068462E6902F020
:1083D00001FB074602F0CEFD0446002F08D002AA9A
:1083E0000199009802F016FB029802F00DFE06E0DB
:1083F000029802F009FE002801D1002C02D030467C
:1084000001F03EFD00206871FEBD0000302100201B
:1084100010B507484068002807D08047002803D0DF
:108420000022114600F0F2F910BD02F01FFD10BD50
:108430005421002010B502F067FD002805D00E4938
:108440000C484860C8130D4988610D48018CC9B2B9
:1084500001290ED1818C09070BD1018D0906090F65
:10846000042906D1808D0006000F02D105490120A4
:10847000886010BDDFFF07C000050040006C0040B1
:10848000C00F00F0000600407CB51B4CA0681B4EDE
:108490000025002818D0A56019488069C1B2194884
:1084A00000F0D7F9002805D001216A46117001902B
:1084B000684607E013488168C068401A012803D164
:1084C0006846057071688847E069002803D0E56157
:1084D000032003F049F8606A00280BD06562084960
:1084E00080390868086002216A461170019071683D
:1084F000684688477CBD0000002100400421002020
:1085000000250040EC27002030B47446641E257816
:10851000641CAB4200D21D46635D5B00E31830BCB7
:10852000184702E008C8121F08C1002AFAD1704794
:108530007047002001E001C1121F002AFBD17047E3
:1085400038B50D4C6078022802D00C4901208860B3
:1085500069460B4800F06CF9002802D000F016F8CC
:1085600038BD0848802181606A46074B1278DA617D
:1085700002226270416038BD0421002000200040CA
:10858000FC27002000230040002500401CB50649C0
:108590000120C8600549487003206A461070496888
:1085A000684688471CBD00000020004004210020D0
:1085B00004490020487004490122CA604A60034906
:1085C0000860704704210020002000400025004082
:1085D000F7B582B0002605461670007814460028CC
:1085E00005D02846039902F04BFE060008D1A87872
:1085F00000281ED02078039F001D1F2802D90C20C0
:1086000005B0F0BD684679DF0028F9D12178032252
:10861000481C20707A5421781922481C20707A5402
:108620002078C1196846008803F066FE217840185A
:108630002070E8780223002810D02078039A411C8B
:108640002170135420780399471C012227700A5483
:108650002078EA78471C039927700A546868002834
:1086600015D00021415620788C460246C01C039943
:108670001F28C4D8501C20708B5422780A23501C09
:1086800020708B5420786246431C23700A5428893A
:10869000002809D028460094062202210830039BB6
:1086A00003F0A8FE0600ABD1288A002809D028468E
:1086B0000094072203211030039B03F09BFE060069
:1086C0009ED1288B002809D0284600941522142119
:1086D0001830039B03F08EFE060091D1286A002813
:1086E00005D02246039901F01DFC060088D1686A76
:1086F000002805D02246039902F090FD060084D19F
:108700002C20405D002806D022462846039903F01D
:1087100022FB0600C7D1304672E710B501220221C4
:10872000002001F0B9F8002801D0072812D1072253
:108730000221012001F0B0F8002801D0072809D15A
:1087400000210A22084601F0A7F8002801D00728D6
:1087500000D1002010BD0000044842680121C90575
:108760000B46934383600A40C26070470005005087
:1087700070B50024064D06E06968E000085C012140
:1087800002F0EAFD641C28788442F5D3002070BD15
:1087900018210020F8B515460C460646052A01D2D8
:1087A0000720F8BD02F09AFE002803D102F06EFE09
:1087B0000028F6D1114900204E600C7008618D60D0
:1087C00048610F4D0DE0E000296880190091817823
:1087D0006A46517000780B4A694602F003FE002891
:1087E000DFD12046641EE4B20028ECD10348064ADB
:1087F00000210C3000F050F8F8BD000018210020D6
:1088000030C5010089AC0100B9A00100BFF34F8F52
:1088100003490248C860BFF34F8FFEE70400FA0522
:1088200000ED00E0014B1B6818470000C82700203E
:108830008268C36893420AD0826883881A400368BA
:108840009A5C0A708168491C81600020704705208D
:1088500070478268C3689B1A8288934208D8C368AD
:1088600013400268D154C168491CC16000207047A0
:108870000420704738B50C46A268064B12019D587B
:108880000978628800920246204608302369A8478A
:1088900038BD00002C29002070B5114CA568002DB2
:1088A00006D0002A06D0002804D00023247809E04E
:1088B000082070BD072070BD24265E43AE5D002EEB
:1088C00004D05B1CA342F7DB042070BD24240126E6
:1088D0005C432E5564196170A2610360002070BD75
:1088E00030210020FFB59807002481B01E461546B0
:1088F0000F4600280BD1002E09D003F0A7F922491A
:108900000A9888610F70324600208E6008E00720C8
:1089100005B0F0BD24234343D4549B181C75401C60
:10892000B842F7DB24204743BB19032048700F46A9
:108930001846CB6019461830002218232E465E4395
:10894000D3005B181C705C709D7058603018521C0E
:10895000032AF5DB0020C0433861BC70FC700124A1
:108960000A482405046003211420FFF7F5FC084899
:108970000460084C0198A06003211120FFF7ECFC73
:10898000606878610020C3E73021002080E200E0C9
:1089900000E100E000150140FEB504461D48174601
:1089A00082680D46002A0CD001788C4201D2052D38
:1089B00001D20720FEBD214624235943535C012BDD
:1089C00001D00820FEBD8818407801281DD000265F
:1089D00003F0D4FCC0000F490190C96840186946F3
:1089E00003F0F6FC002812D0012101700A4944600E
:1089F00049680830E2C007490198C96841180098E1
:108A0000487003F07DFB0020FEBD2E46E0E7042009
:108A1000FEBD00003021002000150140F8B5144DC6
:108A20000446A868002809D029788C4201D3072081
:108A3000F8BD24216143405C012801D00820F8BD25
:108A400003F09CFCC600E8686946301803F0C0FCDF
:108A500000280AD0022101704460E86831180098AB
:108A6000487003F04DFB0020F8BD0420F8BD000065
:108A70003021002010B5184C012100220904E068C3
:108A8000FFF78AFF002803D000221146FFF7BEFE41
:108A900001210022C9032069FFF77EFF002803D0CF
:108AA00000221146FFF7B2FE00220C496069FFF771
:108AB00073FF002803D000221146FFF7A7FE05210F
:108AC0000022C903A069FFF767FF002803D0002236
:108AD0001146FFF79BFE10BD002000206626000017
:108AE000F0B50546007D002493B00E4600280DD059
:108AF000012001466846103103940173717B417374
:108B0000817BF92001406846891C81731C2104A8DF
:108B1000FFF749FB6946087C02210843694608744F
:108B20002A7DEF21002A02D01022104300E00840E5
:108B30006A461074059407940894287D002800D094
:108B400003A8099001270A9410469771304A828041
:108B50000094B27B0270F27B42708078F922104060
:108B6000F722801C1040EF21084041084900684668
:108B70008170317B017214210BA8FFF714FB01A84F
:108B80000B9068460C908786C486078702A80F90D2
:108B9000A888AB1D0BAA04A9A2DF002835D1B068B4
:108BA000002830D0684687711A4981800094317C52
:108BB000017000200146684641708078F921084024
:108BC000F721801C0840EF21084041084900684611
:108BD000817011A8B16800F0CAFC064614210BA8E8
:108BE000FFF7E1FA01A80B9068460C908686C486D0
:108BF000068711A80F902A46E8880E320BA9A3DF3A
:108C0000002802D100E0EC81002013B0F0BD00008C
:108C1000192A00000829000010B50C490C4803F07F
:108C20007FF8C1B20948683800F03AFA00280BD042
:108C3000082809D00749884206D00749884203D04E
:108C400000221146FFF7E2FD10BD00004C25002078
:108C50001C200020043000000134000070B50C46D8
:108C600092B000216A46117007251171002809D0C1
:108C7000C17849070CD502A9FFF7AAFC002808D142
:108C800002AE00E00026002C0ED0E078002802D0D2
:108C9000284612B070BD01AA0AA92046FFF798FC29
:108CA0000028F6D10AAA00E000226846037901787C
:108CB000304672DFEDE70000F8B50D46069917461D
:108CC000040013D0002F11D04A4800264671C3601B
:108CD0000161202239464848FFF73EFA4648C168FC
:108CE000002905D00169002902D002E00E20F8BD5C
:108CF00006728169002902D0C169002900D1067578
:108D000000F0DCF83C493031084610380160203171
:108D1000816030215038FFF746FA374821783038E3
:108D20000170A1788170E178C170617841706269E9
:108D3000216942610161E268A168C2608160014607
:108D4000E369A269CB618A61616A002917D0014693
:108D5000A0310246AC3241628A60636A1B880B8094
:108D6000616A436A898899800021436A04E0666ADF
:108D7000B668765C5654491C9E888E42F7D8A16A24
:108D800000291CD01C4AA83211460C398A60816225
:108D9000A36A9B888B80A16A836A09881980002155
:108DA000836A04E0A66AB668765C5654491C9E88BD
:108DB0008E42F7D82C210A5D0F4910390A73216AB7
:108DC000002909D00B4914310162226A52884A8075
:108DD000216A026A098811806168002904D0054966
:108DE000C91D416061684160034829463038FFF77A
:108DF00035FFF8BD68200020B825002010B5028896
:108E0000204C102A15D00021112A15D0192A0FD173
:108E1000807900280CD1607901281CD002282DD03F
:108E2000032805D12171E2680846002A00D0904746
:108E300010BD8088208110BD617013490979A1712E
:108E4000808821898842F6D1012012E02169002919
:108E5000F1D0884710BDA079002809D00948193001
:108E600002F0C6FB002803D0A079401EA071EBE7FA
:108E7000022000F04BF80028E8D110BD022020713C
:108E80000320F6E768200020B825002010B502284E
:108E900001D003280ED1084C207800280AD00020E9
:108EA0002070607900F032F8002803D02169002991
:108EB00000D0884710BD00006820002010B50721B1
:108EC0000148FFF770F910BD8020002010B50D4853
:108ED0000078012814D10C4C6078002810D16079FA
:108EE000002802D074DF00280BD101206070607967
:108EF00000F00CF8002803D02169002900D0884731
:108F0000002010BDB825002068200020F0B5624C7C
:108F100087B06071002606A8069602F0CDFB0127F7
:108F2000082806D0002878D10698002802D027709B
:108F3000AFE00696FFF7C2FF584D6878002808D0CA
:108F40006079012816D1E168002906D0E770072072
:108F500088476079012802D00CE0E67002E068786A
:108F6000002805D04C48193002F042FB002801D1FE
:108F700002206071287A002804D16079022801D18A
:108F800003206071287D002804D16079032801D175
:108F900066712671E16800290AD06079022801D043
:108FA000032805D12878002802D06078002814D042
:108FB000A67018216846FFF7F6F868460670019615
:108FC00006720396607901280BD0344F04262037AF
:108FD00002280FD0032850D12EE0A7700620884722
:108FE000E7E72D48183001906846077046820682F0
:108FF000277145E0288A69464882A889088227485F
:10900000203003F05BFA002805D02878002802D031
:109010006078002802D002202EE03BE00220694662
:1090200008721E4803973038C6700021FFF716FEFD
:1090300000282FD1267120E0288B69460882A88B52
:1090400048821648203003F039FA002805D02878E5
:10905000002802D06078002801D003200CE0022014
:10906000694608720D4803973038C6700021FFF733
:10907000F5FD00280ED1052020716079002803D06D
:10908000684673DF002805D1E168002901D0207906
:109090008847002007B0F0BD68200020B8250020D8
:1090A00073B586B004466946227C097F00208A4257
:1090B00025D000250126684600950680458007A832
:1090C00001902174E188608A6A46A4DF002816D1E5
:1090D000608A0D49884214D0207D002811D0029565
:1090E000039504950595E18868460181867241885B
:1090F0008181049001980590608A02A9A6DF08B0DA
:1091000070BD0820FBE70000FFFF000038B50446F3
:10911000086820600020C043608208792075FF2025
:109120000D46207401216846817006490180221D88
:1091300069460120A0DF002803D129462046FFF719
:10914000CFFC38BD0F18000038B50A88102A1AD095
:10915000112A1AD0502A1BD1027D002A18D0CA88A1
:109160004389891D9A4213D10A8B022A10D10268C1
:10917000002A0DD0CB7E8C7E19022143C907C90F6E
:1091800007D0002106E0898801E00021C94341821F
:1091900038BD01216B4619706946904738BD000003
:1091A00070B5054601461C220F48FEF7D5FF0F4C4F
:1091B000002626702968002907D00822A018FEF78B
:1091C000CBFF204608307ADF02E0084808307BDF1A
:1091D000002808D1401E608004486670044A0021BF
:1091E000001DFFF759FB70BD80260020882000205D
:1091F00019C30100F8B5224C028800271F4DE689EB
:10920000102A16D029464968112A21D0122A2DD0B9
:10921000502A1CD1C288801DB24218D1028B022A6A
:1092200015D1C27E837E10021843C007C00F0CD137
:1092300012E08188698001461048082216311030FA
:10924000FEF78AFF6F70002E01D100F0B3FEF8BD6B
:109250000020C04368806F700846FFF7DFFB0028DE
:10926000F5D0A1690029F2D08847F8BD811D0348D7
:1092700008221030FEF770FFE7E70000882000208A
:10928000802600207FB504460121684681714A4945
:1092900081804A4A01A90120A0DF00287ED12288CE
:1092A00025463C35002A09D044482B46801C0090B6
:1092B0004348616800F0CAFC00287BD12289002A5B
:1092C0000AD03E482B460A3000903D48E168401FD6
:1092D00000F0BCFC00286DD1228A002A0AD0374851
:1092E0002B461230009036486169001F00F0AEFC3A
:1092F00000285FD1228B002A0AD030482B461A3032
:1093000000902F48E169801E00F0A0FC002851D198
:10931000228C002A0AD029482B4622300090284867
:10932000616AC01E00F092FC002843D1228D002A01
:109330000AD022482B462A3000902148E16A401E7C
:1093400000F084FC002835D1216B00290ED002A842
:1093500002F0AAFE19482B46323000901848082225
:1093600002A9801F00F072FC002823D1606B002846
:109370000BD012492B463A3100910279016810480E
:10938000401C00F063FC002814D1A16B002910D010
:1093900002A802F071F90948423000E00AE00090AA
:1093A00007482B46072202A9273000F04FFC00286F
:1093B00000D1002004B070BD0A180000A0200020D9
:1093C000292A000070B5044600F0A8FF2146134882
:1093D00000F082F8114821461838FFF7B5FE204604
:1093E000FFF708FF204600F08FF920880C4D102869
:1093F00002D011280ED10AE0072000F071FA0028EF
:1094000003D000221146FFF701FAA08801E00020F6
:10941000C043A8802046FFF7F1FC70BDFC2400206B
:109420000020002030B50446008C134A8BB09042D7
:109430001FD006AA204601F0D5FC694605460880E3
:109440000020019002900390049022898A800122DA
:109450008A71088106A803910490208C01A9A6DFD7
:10946000002804D169460988A94200D00C200BB01D
:1094700030BD0820FBE70000FFFF000038B50446C0
:1094800008682060087960710020C0430D46208480
:109490000020222108554C21085301216846817083
:1094A0000C490180A21D69460120A0DF00280FD1D0
:1094B0002946204601F03EFC002809D1A868002872
:1094C00005D02946204600F08DF8002800D1002064
:1094D00038BD00000D18000038B50A88102A17D0D2
:1094E000112A17D0502A18D1CA888389891D9A4217
:1094F00013D10A8B022A10D10268002A0DD0CB7E2C
:109500008C7E19022143C907C90F07D0002106E04C
:10951000898801E00021C943018438BD01216B46DF
:1095200019706946904738BD70B505460446403508
:10953000A8890E46142807D12622A118881EFEF7F6
:109540000BFEA889401EA88180B241000919401C69
:10955000A8818E8470BD20308170704770B504463C
:109560000D460846FEF72AFE2080656070BD0A7829
:109570000270497841700220704700001CB500233A
:1095800048221549082002F0CDFC002803D0002213
:109590001146FFF73BF90020009001900120694639
:1095A0000870684660DF002803D000221146FFF7EC
:1095B0002DF90A4802F0ACFC002803D00022114625
:1095C000FFF724F9064802F0C5FC002803D000226A
:1095D0001146FFF71BF91CBD9C240020C593010018
:1095E00099C00100F0B58FB00D4606461C216846B3
:1095F000FEF7D9FD684601780220014368460170F4
:1096000000240194039404940594012708A8069467
:1096100087701549684601840794E97B0177297CA6
:109620004177807FF9210840F721801C0840EF2115
:1096300008404108490068468177142109A8FEF7CF
:10964000B2FD08A8099007A80A9068468785C485D6
:109650000786A8680D903346F088103309AA69463A
:10966000A2DF0FB0F0BD0000382A00001CB5044690
:1096700081786A460C4802F033F8002812D16078ED
:109680001C21484309491C2340181A46694602F028
:10969000DFF8064806494C30807A80000A58214697
:1096A000684690471CBD0000FC2000207C2700205D
:1096B00010C501007CB5134E00250C463060002912
:1096C00018D06946002000F0B3F8002819D101A98C
:1096D000012000F0ADF8002813D168460179002080
:1096E000002901D0022004E069460978002900D051
:1096F0000B2020707068002802D1FFF70EF8054695
:1097000028467CBD6020002010B51C4C0188606894
:1097100010290DD011290AD1401E606007D1FEF733
:10972000FCFF002803D02168002900D0884710BD25
:1097300000281ED100210122084600F0ADF80028C3
:1097400001D0072811D107220221012000F0A4F83E
:10975000002801D0072808D104220221002000F0AF
:109760009BF8002805D0072803D02168002900D0E5
:1097700088476068401C606010BD000060200020C9
:1097800010B5032000F002FA002801D0062800D10D
:10979000002010BDF8B507460024224802E0641CF2
:1097A000042C19D2A2008258BA42F8D1042C13D248
:1097B0001D4E1E4DF069002928D001290DD0022927
:1097C0000AD16000201840194578002D04D0F168B6
:1097D000002901D028468847F8BD61006218294653
:1097E000AD5C511800914978002909D071680A22AE
:1097F00051430D4A521CFFF7CFF8002800D1777073
:1098000000988178084810300155DEE7FFF706F927
:1098100005486100611810304919005D8D78A84233
:10982000D3D0F8BDCCC40100402000207C2500200E
:1098300004280CD2074A1269074B80001B5C0120E8
:109840009840904300D0012008700020704700200D
:10985000FAE7000000050050CCC4010010B5042850
:1098600006D0072810D00A2801D102F031FB10BD24
:1098700008481321808876DF08E00028F7D000220E
:109880001146FEF7C3FF10BDFFF720FB0828F4D1F7
:1098900010BD00000020002070B50023042811D264
:1098A000440004190D4D012A02D101290DD00022D6
:1098B00046008019094E801900290CD0012906D0D4
:1098C000022906D00723184670BD0D30C2B22A55B2
:1098D000F9E74270F7E78270F5E700007C25002089
:1098E00010B5054A0146127A0020D20702D0084678
:1098F00000F054F810BD00004020002070B50E4666
:10990000204905464E608D600020CA60A9071ED51B
:109910000024012211462046FFF7BEFF641C042CE0
:1099200002D20028F5D012E0002810D172080421DC
:109930001548FEF72FFF002809D1FEF719FF002870
:1099400005D11048114A00211C30FEF7A5FFE90798
:1099500006D00F220E4952058A600023CB608A612F
:1099600000280DD107480B4A00211430FEF794FF60
:10997000002805D10348084A01211830FEF78CFF62
:1099800070BD000040200020DCC40100C99B010024
:10999000000500505DAF010059870100FEB5784910
:1099A00006464F684B690093BB00FB18002001225C
:1099B000019352050546734C3300FEF7A5FD180DC3
:1099C00013133749596C828E858E97A1A5A5A5A53D
:1099D000A5C3C8CDD4DADA120B225205A260E56025
:1099E0000D70FEBD05208005A060E56060680F2356
:1099F0005B055840800209D5A260E560022E02D1C5
:109A0000E120C0000AE07D20400107E0E260A5609F
:109A1000022E01D1C82001E0FF2091300E70642198
:109A2000FEF784FB78430022014646E005208005CE
:109A3000A060E56060680F235B055840800204D594
:109A4000A260E56019204001E8E7E260A560E1E777
:109A500005208005A060E56060680F235B05584025
:109A6000800202D5A260E560CDE7E260A560D3E7A1
:109A700005208005A060E56060680F235B05584005
:109A8000800202D5A260E56001E0E260A5600E7090
:109A90007900002211E005208005A060E560606883
:109AA0000F235B055840800202D5A260E56001E00B
:109AB000E260A5600E70002239460098FEF76CFF48
:109AC000FEBD05239B0544E06068012189050A4627
:109AD0008243A2600840E06010E0616801208005D8
:109AE00002468A43A2600140E160E4E76168012028
:109AF000800502468A43A2600140E1600199C8E7FF
:109B00000F214905E1601BE00F468869FEF786FFDB
:109B100011218A1B1C4E01D0002802D0A660E560EE
:109B2000FEBD012A0BD91046C82148436421FEF727
:109B3000FDFA796800224143B869FEF72DFFE6601F
:109B4000A560FEBD0F225205A260E56015E0072367
:109B50009B05A360E5600EE00D225205A260E56062
:109B60000122920507E00322D205A260E56092106F
:109B700001E00F225205E260A5600E70FEBD0000FC
:109B8000402000200005005000008000F0B50021BA
:109B90000B4C0C4D03273F048A00A2589200561923
:109BA000326801238B40034000D00323BA431B04D7
:109BB00013433360491C0429EED30020F0BD00009C
:109BC000CCC401000007005010B500780221FFF757
:109BD000E1FD10BD054900228300D2435B185A60A5
:109BE000042802D308184030027270470C28002065
:109BF000F0B50025ED43002A02D00023042601E041
:109C000004230A260C4C05E09F003F197F687F1C47
:109C100004D05B1CB342F7D32846F0BD26185DB2D2
:109C2000203635739E0036197160002AF4D1E11890
:109C300040310872F0E700000C28002002490918A2
:109C40002C200856704700000C280020FFB58FB06C
:109C50001E4615460F0004D1002211461046FEF79D
:109C6000D5FD002D04D1002211461046FEF7CEFD91
:109C70001C216846FEF797FA6846017802200143E6
:109C80006846017000240194039404940594012112
:109C900008A80694817068460F990184079431786A
:109CA000017771784177807FF9210840F721801C86
:109CB0000840EF2108404108490068468177142197
:109CC00009A8FEF770FA08A8099007A80A90684644
:109CD0008585C485058604480D9709AA69460088CC
:109CE000189BA2DF13B0F0BDA0200020F8B53B49BF
:109CF00014230A780F205A43541821792569384EC5
:109D0000241D02291AD004292ED0052964D101F07E
:109D100061FD01462846FEF709FA064601F05AFDA4
:109D20000146A08871434019401A870801F052FD8E
:109D3000711C4843A1886288891836E0B08822697E
:109D4000800261881318091AA288281810180122A5
:109D50009202914203D28A08194629DF37E0FF2296
:109D60000132194629DF32E0A2681C481101CC30CB
:109D7000091808894B894968A94203D16188584369
:109D800088421BD0022A19D001F024FD0146284642
:109D9000FEF7CCF9064601F01DFD7043281A87082E
:109DA00001F018FD711C484361883A464919401A70
:109DB00083083146204602F0D9F808E001F00AFD98
:109DC00001462846FEF7B2F9B188401828DF00287E
:109DD00002D1024901228A70F8BD000060280020EB
:109DE0000C21002010B5084900204A78002A09D02B
:109DF0008978002906D1FFF779FF002802D01128C1
:109E000000D1002010BD0000602800201422504323
:109E1000054A002180180171C18001220161C260E0
:109E2000416101817047000060280020F8B5134CA3
:109E3000069E65780A2D1FD027787D19EDB20A2D70
:109E400001D30A3DEDB214277D432D19287100205E
:109E500068716A6103C92961E860EB802E81A1788D
:109E60000020002904D1FFF741FF112800D1002074
:109E70006178491C6170F8BD0420F8BD602800209D
:109E8000F8B5224801694A1C3DD02422514382681A
:109E900089184E681E494C6847690079E11B0D021C
:109EA0002D0AED1C002814D101201A4A000450602C
:109EB000184A403A50601849400008601749086045
:109EC0001749012008602F20FEF704F90F490120EF
:109ED0000871B54200D23546E81900020C49000A63
:109EE000403108600A494968001B091B0902090A38
:109EF0000002000AC91C814204D90120064940041D
:109F000080390860F8BD01F0A1FEF8BD30210020C5
:109F1000001501404013014080E200E000E100E054
:109F200000100140F8B50D4611780646881D14460C
:109F30001F2801D90C20F8BD33880720062BFAD33F
:109F40001927FF01BB4202D9164A9342F3D1728806
:109F5000062AF0D3BA4202D9124FBA42EBD1114FBE
:109F6000BB4203D0BA4201D09342E4D8481C052238
:109F700020706A5420781222411C21702A542078C3
:109F80004119308802F0B8F921784018C0B2207029
:109F90004119708802F0B0F9217840182070002033
:109FA000F8BD0000FFFF000010B500221146FEF7CB
:109FB0002DFC10BDF8B5164800F098FF144D002692
:109FC000103D144C002807D0616900291BD00120E6
:109FD0006A461070684615E02878002805D0616947
:109FE000002910D0684606700CE0687800280CD074
:109FF000A16800226868FEF7CFFC002803D0A169A1
:10A00000002900D088472E70F8BD6168F1E7000094
:10A01000982000208026002070B5094B04469E7AC7
:10A02000082000250E4207D00648844202D0188935
:10A03000A04202D10020156070BD052070BD000057
:10A04000BC270020FFFF00000C214843064910B543
:10A05000012240188272911E0181FF21C1720721E5
:10A06000FEF7A1F810BD0000BC2700200548042120
:10A0700042689208D207D20F01D0C1607047816058
:10A0800070470000000500501CB501216846417072
:10A0900011210170032484700548019032220121AE
:10A0A0006846FEF777FB03480460FEF761FB1CBDC2
:10A0B0006DA0010008070050F8B500260124154DD9
:10A0C00023E06968F0004718387821466A698140C2
:10A0D000114218D08A436A6101F0CEF93A782146DC
:10A0E0002B69914019400346934099420BD17978EE
:10A0F000012901D0012100E000217B684140002BB3
:10A1000001D010469847761CF6B228788642D8D3FC
:10A11000F8BD000018210020FEB50E4604468178E7
:10A120006A46234801F0DCFA002826D160780C2129
:10A13000204F4843C019807A40061FD4022E1DD0FC
:10A14000012E1DD01C4DA0781C2148431B49002323
:10A1500041181C226846A847002813D0022E0CD0B4
:10A1600020780C21484313490C314018807A144957
:10A1700080000A58214668469047FEBD114DE2E72F
:10A18000114DE0E7022EF8D060780C214843C01949
:10A19000817ABF221140817260781C2148430549B1
:10A1A000403941181C231A466846A847D8E70000E2
:10A1B000FC200020BC27002069BF0100B826002039
:10A1C00000C5010095BB0100DDB9010070B5054671
:10A1D000114A124800241C2363431B189B7EFF2B4B
:10A1E00004D0641C072CF6D3104670BD0A78022AEE
:10A1F00009D01C2262431018FD22827607221030FB
:10A20000FDF7AAFF04E01C2161430818FE218176B6
:10A210002C700022E8E7000043800000B8260020F0
:10A22000F7B505250F4F06460024002E0AD01C2046
:10A230006043C019072231461030FDF7C6FF0028E1
:10A2400007D00AE01C206043C019018B02988142AC
:10A2500003D101980025046002E0641C072CE4D3BC
:10A260002846FEBDB82600207CB5054681B26A4668
:10A27000074801F035FA040008D17421684601F05E
:10A2800059FA040002D1284601F0BEF920467CBDEF
:10A29000FC20002010B5100003D000221146FEF76C
:10A2A000B5FA002010BD00001FB56946087301F023
:10A2B00097FA002803D000221146FEF7A7FA03A858
:10A2C00000F026FA002803D000221146FEF79EFA7D
:10A2D00001A805210130FDF766FF69464879012292
:10A2E0001043E1210840DF210C30084069464871E5
:10A2F000072088711020C871064800900A7106482E
:10A3000000F02EFB002803D000221146FEF77EFA53
:10A310001FBD000095A2010002200020F0B50546F7
:10A3200093B000200290FF24ED480E94007800289E
:10A330004BD0EC4F3868002847D001A800F0DAF97C
:10A34000002803D000221146FEF760FA281D059070
:10A350002A2069460883FF20002688710E71039623
:10A36000E04C28880C3C10280ED0A88803AA0221B3
:10A37000FFF752FE002807D103980C214143091929
:10A38000CA7A69468A7148712888132217287CD0B6
:10A390000FDC10281BD0112853D0132876D0142896
:10A3A00013D103980C2148430019C07AFF2871D0BB
:10A3B0008DE0CD4918286BD01C286AD0522804D1D2
:10A3C000B87A8000095801A8884713B0F0BDC74F7C
:10A3D00003AA01213846FFF71FFE0028F5D1039993
:10A3E0000C20484302220019827211236A4613741A
:10A3F0005171A98801810722A91DFDF7ADFE287DB5
:10A40000C10707D04108B6480830405CFF2808D093
:10A410000E9006E03A460EA9A81DFFF701FF00289E
:10A420000ED103990C22514309190E98C8728A7AE9
:10A4300008231A438A726946887101A8FFF716F942
:10A4400039E103980C2148430119887AFD22104014
:10A450008872010706D5C0090DD0002101A8FFF7B9
:10A460005BFE08E068468079FF2804D001F0CCF854
:10A47000FF206946887103980C225043102100196F
:10A48000817212206946087415E17FE030E001E036
:10A49000D5E00EE1EA890EA90020FFF7C1FE0028F1
:10A4A0000ED103980C22504300190E99C172837A81
:10A4B0000822134383726846817101A8FFF7D6F81A
:10A4C00003980C2148430019C07AFF2806D003984E
:10A4D0001C21484383494C394018029003981C21A1
:10A4E000484383494218A8880023029982DF6CE719
:10A4F00068460274039B0C2058430119887A042291
:10A5000010438872C87AFF2830D016206946087434
:10A510002420434373481A21303818180830FDF7B7
:10A5200042FE03980C2148430019817A40221143CE
:10A53000817203990C2200204A430A901219D27AA0
:10A540001C235A436A4B0C90D2180B921C22514385
:10A550001A46C43289180791089009903A1DA888B4
:10A5600007AB00217FDF0028C1D1A4E00EA8FFF7D0
:10A570002DFE002801D00646DBE769460E9888715B
:10A5800003990C2251430919C872D2E7787A40081E
:10A5900040007872039A0C209446424311198B7A3A
:10A5A000FB2003408B7214206F463874A879002872
:10A5B00004D0C87AFFF758FEAE797CE0E87940070E
:10A5C00079D5B879FF2876D008273B438B72EB7A90
:10A5D0009B0708D51C2503466B43454D5B199D7EA3
:10A5E0006D086D009D76CB7AFF2B64D0A25C022AA9
:10A5F00010D01C2250433E4D072240191030FDF769
:10A60000ABFD684680791C2148434019817EFD22BC
:10A6100011400EE061461C225143324A4C3A8918DF
:10A620004A8A1C214843324940180283817E4908E6
:10A6300049008176012101A8FFF76EFD3BE0A87972
:10A640000209012A23D10007000F01281FD1039816
:10A650000C2242431219927A120718D5242148433A
:10A660002049303940181A210830FDF79CFD16208A
:10A670006946087403980C2148430119887A6022BE
:10A6800010438872787A0221084378720FE00398A9
:10A690000C2250430019827A80231A4382721520BB
:10A6A0006A461074B87A8000095801A888470026C5
:10A6B00001E068460274324604A901A8FEF7B2F828
:10A6C0006846007C122800D07FE603980C214143A5
:10A6D0000919897A0129F7D0FFF7B6FC75E6000061
:10A6E000EC200020C827002020C50100FFFF00004B
:10A6F000B8260020002806D0FF210170417081702B
:10A70000C170002070470148704700000E800000B3
:10A71000F0B585B0040036D02948002505604572A3
:10A7200085722846FFF790FC254824213038FDF734
:10A730003AFD0026FF27304600F066FF2148875586
:10A74000761C072EF7D37421684681800721C180CB
:10A750001D481C4900900831684601F0CBF80028DC
:10A760000FD1184E0120083E3070207800280CD000
:10A7700069468888C988484381B23046103000F065
:10A78000D9FF05B0F0BD1148FBE7114F00240D487B
:10A79000A1B202AA083000F0A3FF002809D11C20B2
:10A7A0006043C01900231C2202A901F051F80028BF
:10A7B00001D03570E5E7641C072CE8D3E1E7000021
:10A7C000C8270020F4200020D5A701000E8000003B
:10A7D000B8260020FFB55D488FB00068189F1E4660
:10A7E000002875D0742F73D86846FFF783FF0028C0
:10A7F00003D000221146FEF709F8002468460470D1
:10A800000471254605970696A9B20DAA504800F096
:10A8100067FF002806D108220DA90F98FDF7D5FC87
:10A82000002817D06D1C072DEED368468578FF2DC4
:10A830004ED01098042810D046481C21301AFDF73D
:10A8400075FC012707281ED204A802901198002841
:10A850000BD011E068468570E7E7742F03D04020E5
:10A86000694608716CE02020FAE738463849A8406C
:10A8700010394968084261D0284601F043FD202084
:10A88000694608714AE031481C214C38301AFDF7FE
:10A890004DFC00281DD02D4824213038301AFDF7FA
:10A8A00045FC01002C482CD040216A4611712B49EF
:10A8B0008E4245D0274AA9001C3A5158B1423DD199
:10A8C00004A90291C07A854228D16846447025E0E7
:10A8D00034E004A8029020216846017144701B48AE
:10A8E0000A940C300B9058380790684680781C21E9
:10A8F000484318494018089007A80690182005906A
:10A900000CE0302269460A714C70CF70807A800763
:10A9100004D4114824212438FDF745FC10986946D9
:10A920000328087910D0022108436946087104A859
:10A93000029001A96846119AFDF774FF13B0F0BDAB
:10A94000694608790321EFE73843EFE7C82700207D
:10A95000FC200020B8260020BC270020FCC40100F9
:10A9600070B5064618480D46007800280ED01749E5
:10A97000002E0ED0002D0CD02868002809D0144CD1
:10A980002168002907D011480A3870BD0F48801F80
:10A9900070BD084670BD20600522691D201DFDF7B1
:10A9A000DBFB2879A072207A02214008400008438E
:10A9B000FB2210402072E079012318430843104025
:10A9C000E0710020307070BDEC2000200E8000008F
:10A9D000C827002010B50E4900238A78CC78A242FF
:10A9E00012D0521CD2B28A70022A00D18B708A789F
:10A9F000074B92001C339A580260486910180002F5
:10AA0000000A4861012010BD0360002010BD000055
:10AA100030210020F7B5144C0025A76823691EE0FB
:10AA200024215943C9194E68864202D9301A486018
:10AA300017E0801B751900264E600E750E699C4646
:10AA40000B6AB646002E0AD0019E76193602360AE7
:10AA50008E607646CE6016680E6261461160591CA3
:10AA6000DED12361FEBD0000302100200EB5112093
:10AA7000694608720B2214A102A87CDF002803D0CB
:10AA800000221146FDF7C2FE124878DF002803D0ED
:10AA900000221146FDF7BAFE0020FF22009041324D
:10AAA000694601900A804122D2004A808880FF20B6
:10AAB0009130C88068467ADF002803D00022114612
:10AAC000FDF7A4FE0EBD0000307831383030305F25
:10AAD00048524D004103000000207047002070479D
:10AAE00000207047F8B506464078242104464C43C0
:10AAF00024490C2250436118224A00254B68243215
:10AB00008018AE462F469C46002B0CD0827A134606
:10AB1000D20908D05A0606D40D461A4A614689B2AF
:10AB2000175908358E46174C008924343B46724627
:10AB30002946A9DF0B2819D0002800D01248012F80
:10AB400013D170780C214843001900890F4AA7DF00
:10AB500000280AD00E49884212D0082810D0891C3B
:10AB600088420DD011280BD00020F8BD70780C2140
:10AB7000484301230019008972462946A9DFE0E70E
:10AB80000148F8BD9827002041800000FFFF000029
:10AB90000230000070B50C46014660782422084D52
:10ABA00050434019382300F053FE002807D1617844
:10ABB0002422514349194A68521C00D14A6070BD91
:10ABC00098270020F3B589B00D461A20694688837E
:10ABD00068780C2103274843224E3B4680190089A0
:10ABE00007AA6946AADF002838D16878242148439B
:10ABF000741A001969468A8B0830FDF7E6FA0028B6
:10AC0000687807D0242148430119496800290DD0EC
:10AC1000154E0CE00C2141438919897A89071DD40E
:10AC2000242148430019FDF7BEFA17E00F4E2750C4
:10AC30006846828B6878242148430019426068780E
:10AC40004843001969460830FDF786FA68782421E0
:10AC500048430119382324220998B04700200BB03B
:10AC6000F0BD0000BC27002095BB0100DDB901004C
:10AC700010B5FFF737FF10BD10B5FFF78BFF10BD04
:10AC800010B5FFF79FFF10BD70B50646104C0125AB
:10AC9000B540E068FDF7C2FE00280CD16169294289
:10ACA00007D1304600F0E8FB0028206904D0284393
:10ACB00003E0A943616170BDA8432061606900227F
:10ACC00028436061A168E068FDF766FE70BD000082
:10ACD0001821002010B51349134801F021F8124C37
:10ACE00081B2243CA068401CA0600E486038FEF78A
:10ACF00099FB00280BD0082809D00C49884206D0BF
:10AD00000B49884203D000221146FDF77FFD032145
:10AD1000A068FDF70BFA002901D0012000E0002017
:10AD2000207010BD5C25002024200020043000008D
:10AD300001340000F0B5002406460D46601C0107F2
:10AD400095B0090F08A810310C940174297B417447
:10AD5000817CF9273940891C81741C2105A8FDF7E5
:10AD600022FA6846017D10200143684601750CA84F
:10AD700006940A900894099401220B9408A88276FC
:10AD80001749684601870D94697B08A80175A97B5E
:10AD90004175817DF7203940891C0140EF20014039
:10ADA000114308A8817514216846FDF7FCF90EA827
:10ADB00000900DA801900FAA0021304600F012F873
:10ADC0000146684601811421448181810FA80490C5
:10ADD0003346F08808336A4605A9A2DF15B0F0BDF6
:10ADE000372A0000F7B542790025002A00D0042553
:10ADF0002222135C0222002B00D01543CBB2FF2984
:10AE000007D901221543029A090A5370917003264B
:10AE100002E0029902264B7004464034A1890029C1
:10AE200001D010210D43002716E0B11C142909D9C7
:10AE3000A189C91B4A007900091824302431FDF783
:10AE40008BF90CE0029B7A0012189B19928C1A70F5
:10AE5000120A5A70CEB27F1CA189B942E5DCA089E2
:10AE6000C01BA081029805703046FEBDF8B51E4C8F
:10AE70002078002837D02069002807D00026E06815
:10AE8000002805D00025002E04D013E00126F6E7A7
:10AE90000125F8E7684651DF052806D0002806D0CE
:10AEA00000221146FDF7B2FC04E0012602E0216910
:10AEB00000988847002D12D1608869460880A068F4
:10AEC00061DF052806D0002806D000221146FDF7D4
:10AED0009DFC04E0012502E0E168A0688847002E9F
:10AEE000D8D0002DCFD0F8BD54210020418805488E
:10AEF0000288914204D34088814201D801207047E2
:10AF000000207047902000201048018CC9B2012910
:10AF100017D1818C090714D1018D09060A0F03D1BD
:10AF2000828D1206120F0ED0090F012903D1828DD6
:10AF30001206120F07D0032903D1808D0006000FDF
:10AF400001D000207047012070470000C00F00F0C2
:10AF5000800701D0002070470120704710B50448D9
:10AF6000017AC90702D00078FEF718FD10BD000075
:10AF700040200020F8B5234801690091457833E06E
:10AF80002048E900C0680E1834782AE01820604391
:10AF90007168641C0818B178E4B2A14200D10024A1
:10AFA0000178022902D003291BD113E0154A406819
:10AFB0002421926841438F18397D002911D001F076
:10AFC000D9F8002038750CE024277843C0180275A2
:10AFD000006A03E00B4900228B680869471CF3D123
:10AFE00008617078A042D1D128466D1EEDB20028CC
:10AFF000C6D1044801690098814201D00120F8BD02
:10B000000020F8BD30210020F8B50446384800275C
:10B010000169009146785CE03548F100C2688D18FE
:10B0200051E0601C07D0324A2420926860432146D8
:10B030008018046A24E02878182141436A68401C7B
:10B04000C0B252182870A978884200D12F70284BBE
:10B05000516824209B684843C0181378012B34D1D1
:10B06000037D002B31D193688360D368C36013697B
:10B0700003615269C2611E4A5279002A00D087607A
:10B080001B4B82685B6996469C46D31A1A02194B81
:10B09000120A9A4202D2C368D21808E07246634686
:10B0A0009A1A1202C368120A934202D99A1A42608B
:10B0B00000E0476087600122C7600275921E02624D
:10B0C000084601F025F8601CABD1287869788842E1
:10B0D000A7D13046761EF6B200289DD104480169FA
:10B0E0000098814201D00120F8BD0020F8BD000089
:10B0F00030210020FFFF7F0096B001F0B3F8404AF6
:10B1000040490120FEF7FAFB002803D00022114637
:10B11000FDF77CFB01A90020FEF7CCFA002803D044
:10B1200000221146FDF772FB6846007902285DD0C7
:10B13000002168460170FEF721FAFEF7A5FF684678
:10B140000078FFF7B1F8FFF791FC302101A8FDF777
:10B150002AF8022168460171012484710621C17117
:10B16000032585822848069020210DA8FDF71BF8AD
:10B1700008A80477FF202D301090B42000241190EF
:10B18000224B0DAA2146009401A8FDF795FD002849
:10B1900003D000221146FDF739FB00F01BFE00F042
:10B1A00085FD1C216846FCF7FEFF0520C0030190C9
:10B1B0000F200004029000946846057314488189AA
:10B1C0006846C18104741348059013480690684688
:10B1D000FDF7E6FF002803D000221146FDF716FB1D
:10B1E000FDF748FC0220FDF791FE02E00121A0E7F7
:10B1F00048DF0028FCD000221146FDF707FBF7E7E7
:10B200005D980100CD0C00003420002021B5010024
:10B21000FC24002045B50100A99F010070B505463A
:10B2200000790E46801C1446C0B21178821C8A1820
:10B230001F2A01D90C2070BD0A46491C2170401CF0
:10B24000B0542078FF22411C21703254207881199B
:10B25000288801F051F821784018C0B22070AA88DF
:10B26000002A09D0A968002908D08019FCF774FFCA
:10B270002078297940182070002070BD072070BD0B
:10B28000F8B514780746A01C15460E461F2803D8AB
:10B290007878801C1F2801D90C20F8BD1D20001BC8
:10B2A00080B26946864608803019801C7DDF002800
:10B2B000F3D13878022805D168460088704501D856
:10B2C000092107E078780821002801D0704501D9CC
:10B2D00068460088421C3255641CE2B2B154297899
:10B2E000801C081828700020F8BD0020704700203E
:10B2F00070470020704700008207D30EFF229A405B
:10B300008907090E10B5994000280BDA03071B0FB7
:10B31000083B9C080C4BA400E318DC6994430C43E5
:10B32000DC6107E08408094BA400E4182368934318
:10B330000B432360C106C90E012088400449086000
:10B340000449086010BD000000ED00E000E400E0EA
:10B3500080E200E000E100E070B50D46064600F036
:10B3600073F901240028304618D0FEF767FC18490D
:10B37000001F08184030007B8009032802D00128F4
:10B3800005D006E013480069B440204201D10221F3
:10B3900000E00321304600F0A9F870BD00F060F92C
:10B3A0000028FAD03046FEF749FC8100CA1D0A4B3E
:10B3B000F932C9180B6992B223430B61074951183E
:10B3C00000220A60002DE8D084400548446070BD2A
:10B3D0000C2800200005005000650040006000407F
:10B3E00000630040F8B5204F0D46044638192C2163
:10B3F00041560026C8171346401C01D0082630E0ED
:10B40000EA7819462046FEF7F3FB411C28D0174B7B
:10B41000AA78A100C918002A03D00A6802239A4317
:10B4200001E06A7892000A60E978002910D0820071
:10B430000F482978101802690E4B1A400261E20683
:10B44000D20C8907890B0A4301690A43026108E0AB
:10B45000381840302A78017A92011143017200E0D5
:10B4600004263046F8BD00000C28002000070050DC
:10B4700000650040FFE0FCFF03490969C140C807BF
:10B48000C00F00D0012070470005005070B5114D6D
:10B490002878002801D0082070BD0020411E2A18FD
:10B4A0002032401CC0B211732028F8D3002420465B
:10B4B000FEF790FB641CE4B20A2CF8D301210620AD
:10B4C000FFF71AFF01200449C007486001202870D7
:10B4D000002070BD0C280020006300400248007866
:10B4E000002800D0012070470C2800208200064868
:10B4F0001018026803231B049A43026002680904BF
:10B500000A430260704700000007005003494018DA
:10B510000068012800D00020704700000060004053
:10B5200010B500280AD0022807D1FEF7D9F9002863
:10B5300003D000221146FDF769F910BD00F0C8FCE8
:10B5400010BD000010B50078002809D105483B2146
:10B55000808876DF002803D000221146FDF756F9D7
:10B5600010BD00000020002010B51D4A1D49030039
:10B57000FCF7CAFF05040B31202712004878012888
:10B580001FD0022808D1032005E04878002804D005
:10B59000032801D10220487010BD134B042018600D
:10B5A000124B012018609368D2689A42F3D0FCF7DE
:10B5B000C7FF10BD4878012806D0022804D0032810
:10B5C000F7D1FCF7F5FF10BD9068D1688142EED14C
:10B5D000FCF7DCFF10BD48780128E8D010BD000062
:10B5E000FC2700200421002000250040002000400E
:10B5F0000021425C002A01D001207047491C062925
:10B60000F7D300207047000070B505461C200D4997
:10B6100068434418204611300621FCF7C4FD20463B
:10B620001021FCF7C0FDFF2121740020A176C0434A
:10B630002083284600F066FE024A0020A9001C3A3A
:10B64000505070BDB8260020044908182C214156DE
:10B65000042901DB01207047002070470C280020DE
:10B66000044908182C214156042901D201207047B1
:10B67000002070470C28002070B50D00044604D14E
:10B68000002211461046FDF7C1F8002C04D100221B
:10B6900011461046FDF7BAF8287820706988617065
:10B6A000090AA170A988E170090A2171E88860710E
:10B6B000000AA07170BD000007490978002906D072
:10B6C000002806D00549497801600020704708200D
:10B6D00070470E20704700000C21002060280020D9
:10B6E00030B5124B1B78002B07D0002807D0002A5A
:10B6F00005D00468002C12D103E0082030BD0E20D4
:10B7000030BD0B4B1D68002D09D045681889414399
:10B7100069185D89454358682818884201D8072070
:10B7200030BD14600020516030BD00000C210020AD
:10B730002C290020F8B505461B480F460078002844
:10B7400005D0002D05D02868002820D103E008206E
:10B75000F8BD0E20F8BD154C00262068002816D034
:10B7600060892189484361684118686881420ED91F
:10B77000FFF7EEFB00280CD0296868680901091959
:10B780004A680989801AFCF7D1FC002903D00720F8
:10B79000F8BD1020F8BD3B46002229460420009643
:10B7A000FEF744FBF8BD00000C2100202C290020EE
:10B7B00010B507484469601C06D000F00BF801463C
:10B7C0002046FCF7B3FC10BD01200007406910BD06
:10B7D0000010001001200007006980B270470000CF
:10B7E000F8B50024184D194EAC806C70347074702C
:10B7F000B47027463846FEF709FB7F1C0A2FF9D3A1
:10B800006C80FFF7D5FF871EFFF7E4FF47430F4823
:10B81000AF60AC80CC300460048184814481082016
:10B820006870FFF7D7FF0746FFF7C2FF441EFFF718
:10B83000D1FF60433946FCF779FC28DF002802D1AC
:10B840000121B1702970F8BD0C2100206028002072
:10B85000FFB5264881B000781F4616460D460028E1
:10B8600008D0002D09D00198002806D028680028AB
:10B8700018D104E0082005B0F0BD0E20FBE71C4CF9
:10B88000206800280ED061892089626841438918A8
:10B890006A68914206D9002E04D0B04202D3F11951
:10B8A000814201D90720E6E70198FFF751FB002804
:10B8B0001AD03846FFF74CFB002815D06868FFF710
:10B8C00047FB002810D068683246C1190198FCF780
:10B8D00043FC0096286800220001245803212846D2
:10B8E000019BA0470020C6E71020C4E70C210020E0
:10B8F0002C290020F8B5374D044628780E4600283C
:10B900002ED0002C2ED0002E2CD02068002829D03C
:10B91000FFF760FF0146A088814228D3102826D374
:10B92000E088002823D0FFF743FF471EFFF752FFB0
:10B930004743E088A1884843A9684018874216D346
:10B94000FFF748FF0146E088A288504381420BDAA6
:10B95000FFF740FFA188FCF7E9FB002907D103E0CE
:10B960000820F8BD0E20F8BD2079800701D00720FF
:10B97000F8BD688801281BD03060174FA968020104
:10B98000D019716041602168B950A1880181E188B6
:10B990004181A088E188002648430446761CB6B25F
:10B9A000FFF718FFA04205D2FFF714FF241A02E0A8
:10B9B0000420F8BD0024FFF70DFFA9684018A86017
:10B9C000002CEBD168880101C9198E81401C688068
:10B9D0000020F8BD0C2100202C290020F8B50446D9
:10B9E00020481E46007815460F46002807D0002F35
:10B9F00007D0002C05D02068002817D103E00820CC
:10BA0000F8BD0E20F8BD1848016800290ED0428903
:10BA1000018940684A4310186268904206D9002D97
:10BA200004D0A94202D3A819884201D90720F8BD41
:10BA30003846FFF78DFA002811D03046FFF788FA14
:10BA400000280CD06068FFF783FA002807D02B4647
:10BA50003A46214602200096FEF7E8F9F8BD10208C
:10BA6000F8BD00000C2100202C290020F8B5074665
:10BA70000020464E8646B07801281ED10020444B57
:10BA8000B0705A78082A19D03446257814216943B1
:10BA90000C19022F20D0032F0FD16079401CC0B2A7
:10BAA0006071241D03286AD0FEF720F9002804D015
:10BAB000112802D02146FCF7DDFEF8BD022F09D087
:10BAC0001870FEF78FF90028F7D03178142251430F
:10BAD000891959E05870F4E72D498B885B1C9EB298
:10BAE0008E802379241D022B05D16788B102B942CB
:10BAF00001D3012100E000218C46052B01D1072A4A
:10BB000003D00021042B02D003E00121FAE7072A29
:10BB100003D00027042B02D007E00127FAE764884E
:10BB2000B302A34201D3002A27D000223943114394
:10BB30006246114317D0164A1449507090804878D5
:10BB4000401E4870681CC0B208700A2801D30A3829
:10BB500008701420684341187046091DFCF78AFEDE
:10BB60002846FEF753F9FEF73DF90028A5D007490E
:10BB700014230A785A43511806E00122D6E7307898
:10BB80001421484381190D20091D94E760280020E5
:10BB90000C210020F8B5044620481E4600781546C2
:10BBA0000F46002807D0002F07D0002C05D02068B2
:10BBB000002817D103E00820F8BD0E20F8BD184872
:10BBC000016800290ED04289018940684A43101853
:10BBD0006268904206D9002D04D0A94202D3A81968
:10BBE000884201D90720F8BD3846FFF7B1F900288F
:10BBF00011D03046FFF7ACF900280CD06068FFF791
:10BC0000A7F9002807D02B463A4621460520009682
:10BC1000FEF70CF9F8BD1020F8BD00000C21002043
:10BC20002C29002010B507480078002809D00548C5
:10BC300005492C3000F074F881B203487038FDF7E4
:10BC400073FC10BD002000206C25002070B501247D
:10BC50000B49600408600B4940108860094940396D
:10BC60008860094D6C602F20FCF734FAAC60074DFA
:10BC700000242F206C61FCF72DFA2C7170BD0000A0
:10BC800080E100E04013014000100140302100201D
:10BC900010B5044801224178514041700248FDF737
:10BCA0005AFC10BD00200020FC24002070B5144870
:10BCB000012451216425846022C004711049114877
:10BCC00000F022F80E488C2110300160FF212D3148
:10BCD00041600A2181600026067301460948083048
:10BCE00000F012F80648FF2120300560F53184602D
:10BCF0004160067301460348103000F005F870BD3E
:10BD00004C2500201C2000200A7B002A03D0496813
:10BD10000160002102E009680160012101717047A2
:10BD200010B504798B680268002C08D049688C1A19
:10BD30009C4201D9D11807E00160002108E00968A0
:10BD4000541A9C4202D9D11A016002E0016001211B
:10BD50000171006810BDF7B582B002981446806A80
:10BD60000F46002833D0029800252030009028E0AC
:10BD70000298816A0C2068430E18217830794A1C99
:10BD80002270C01C785420781622411C21703A542D
:10BD90002078C119308800F0AFFA21784018C0B27D
:10BDA0002070B288002A09D0B16800290FD0C019CC
:10BDB000FCF7D2F920783179401820706D1C00987A
:10BDC000EDB2007BA842D3D8002005B0F0BD07201B
:10BDD000FBE7000030B59BB0032118A801721421C5
:10BDE00010A8FCF7E0F90024012510A810940571B3
:10BDF0001AA81290601C0107090F10A810310173D6
:10BE000044738473601C0107090F10A81031C173BB
:10BE10000020014610A8017401462748FDF72EFBBB
:10BE2000002803D000221146FCF7F0FC142115A8CD
:10BE3000FCF7B9F90120014618A810314170012022
:10BE4000014618A8103181700020014618A8C17061
:10BE50000120014618A81031017110A8159405762B
:10BE6000642118A817940170134815A91838FDF714
:10BE70004DF9002803D000221146FCF7C7FC4021F1
:10BE80006846FCF790F90DA16846FDF767FB0120B5
:10BE9000014608A8103101770020014608A8417723
:10BEA0006846FDF7EFF9002803D000221146FCF7A1
:10BEB000ADFC1BB030BD0000FC2400204E6F72644E
:10BEC000696353656D69636F6E647563746F720047
:10BED00010B50020FDF704FD002803D00022114614
:10BEE000FCF794FCFDF74CFC002803D0002211461F
:10BEF000FCF78CFC3CDF002803D000221146FCF745
:10BF000085FC10BD10B508461146C046C04610BDA0
:10BF1000002803D00249C860002070470E207047F7
:10BF20005421002070B5002901D08C0701D00720D2
:10BF300070BD064C0125A16062800549636010DF79
:10BF40000028F5D1257016202EDF70BD5421002069
:10BF500005BF0100002803D0024908610020704796
:10BF60000E2070475421002000207047FFB581B09B
:10BF7000484C0E46039F049A0546617803201743F8
:10BF8000002903D1002F0DD001216170039AC9B29D
:10BF9000920000920B00FCF7B7FA072C071B2E4605
:10BFA0005D6C2C000221F0E7FFF714FC8708FFF717
:10BFB00011FC70430546FFF7FBFB461EFFF70AFC2A
:10BFC00070433A46294629DF002812D102210FE0AA
:10BFD000304628DF00280CD10399002901D0032125
:10BFE00006E00499002917D12978042950D018E0D7
:10BFF000617005B0F0BDFFF7DBFB471EFFF7EAFB02
:10C000004743FFF7E7FB70433946039A29DF0028CF
:10C01000EFD10499002901D00421E9E72978042906
:10C0200025D00521E4E7FFF7C3FB471EFFF7D2FB4E
:10C0300047436888391800980F18FFF7CBFB6988C9
:10C04000704341180098049A0818394629DF0028DF
:10C05000E4D0CEE7FFF7BEFB009970434018698833
:10C060008A08296929DF0028C3D1002F10D00621B2
:10C07000BEE7FFF7AFFB0646FFF79AFB451EFFF74B
:10C08000A9FB68433146FCF751F828DF0028B0D1FE
:10C090000721ADE70C21002010B50446FFF7E6FCB0
:10C0A0002046FCF7F3FE10BD70B50C00054604D128
:10C0B000002211461046FCF7A9FB002D04D10022F6
:10C0C00011461046FCF7A2FB207828702088FF213B
:10C0D00009020840000A6870206809020840000C44
:10C0E000A8702068000EE87020792871207A6871A5
:10C0F0002089000AA871A068000CE87170BD0000DA
:10C1000001200249000508607047000000E200E0DD
:10C11000F0B5174F2421BC6841430D1939694A1CF9
:10C1200009D024224A4316196B687268934204D8D6
:10C13000D21A726029623861F0BD0A4602E00A46EE
:10C14000396A9B1B4E1C0BD024264E4337197E6840
:10C150009E42F4D324264E4336197768FF1A77603F
:10C160006B60296224214A4311190862F0BD000066
:10C170003021002070B5194C2269A568134611467C
:10C1800006E0814207D00A46242671434919096A0C
:10C190004E1CF6D170BD002EFCD08A420CD124205A
:10C1A00043435819006A2061401C05D10C4B012003
:10C1B000986000236361607124204143481924235F
:10C1C00041685A43006A52191062421CE2D024228C
:10C1D0005043401942685118416070BD3021002021
:10C1E00000100140F8B51D4C2569681C35D01C486D
:10C1F000002640686169401A07023F0A19E02420BE
:10C200004543A0682A185068B84214D8A3693F1A59
:10C210008619156A002B09D0D169906998470028C2
:10C2200007D000221146FCF7F1FA02E09169D069CB
:10C230008847681CE3D1A178E078814206D1401C90
:10C24000C0B2E070022801D10020E070034900066E
:10C25000800D1C310E50FFF753FFF8BD3021002038
:10C260000015014008B500201D4B05220921009052
:10C27000FCF738FB002803D000221146FCF7C6FA71
:10C28000184A01211848FCF707FB002803D00022B8
:10C290001146FCF7BBFA1448144A0121001DFCF7B3
:10C2A000FBFA002803D000221146FCF7AFFA0E4833
:10C2B0000F4A01210830FCF7EFFA002803D00022D2
:10C2C0001146FCF7A3FA08480A4A01210C30FCF792
:10C2D000E3FA002803D000221146FCF797FA08BDC4
:10C2E0006C210020198C01000C200020D5AC01002D
:10C2F00025BC010091BC01000870000A48700220B2
:10C300007047000001218140024842688A43426030
:10C3100070470000EC20002038B51549154A4888C0
:10C3200090420FD04A78144C521CD2B24A70237BF0
:10C33000934208D3083175DF002803D0A169002992
:10C3400000D0884738BD00254D70217C002907D0DA
:10C350003B2176DF002803D0A169002900D088475F
:10C3600061690029EED068460570884738BD000035
:10C3700088200020FFFF0000802600201249486826
:10C38000C005C00D19D0103840B2002807DA0207E6
:10C39000120F083A920892005118C96904E0810806
:10C3A0000A4A8900891809688007C00EC14008063A
:10C3B000800F012803D0032803D0022070470020FB
:10C3C000704701207047000000ED00E000E400E04D
:10C3D00042788378521C934200D100220378934222
:10C3E00001D1002070470A6041684078182250430C
:10C3F00008187047F8B51546069C1E4607460222E7
:10C40000009400F00AF8002806D13346102229468D
:10C410003846009400F001F8F8BDFFB583B0074638
:10C4200000200C9C8646267805463AE07868A900EC
:10C4300041180A88684682804988C180002269467E
:10C4400001A865DF002810D168460178059881426F
:10C4500026D17046002801D0002200E00222207878
:10C46000891841181F2902D90C2007B0F0BD714668
:10C47000002908D1401CC0B2411C069B049A2170BF
:10C480001A5401208646217806980A18694601A8A0
:10C4900065DF0028E9D169462078097840182070C6
:10C4A0006D1C3888A842C1DC7046002804D0207872
:10C4B0000699801B401E88550020D6E70179002987
:10C4C00002D1007B002800D001207047110000003D
:10C4D000120000001300000014000000110003000F
:10C4E00095970100120003009597010013000300C7
:10C4F000959701001400030095970100FFFFFFFFCF
:10C50000F3B20100C5AB0100E1AA010081AC01005A
:10C51000EFB2010095AB0100DDAA010079AC01008A
:10C52000EBB20100E5AA0100D9AA010071AC01003B
:10C530000300000054C50100002000206C01000031
:10C540000882010074C501006C210020D40F000096
:10C55000328501004201032FFFFF0C320D1801004C
:10C560000F1801000A18010393FFFF02650114244C
:04C57000F4000000D3
:04000005000180C1B5
:00000001FF
