:020000040001F9
:106C0000F8B50D4606991746040013D0002F11D091
:106C10004A4800264671C36001612022394648482F
:106C200001F09AFA4648C168002905D00169002997
:106C300002D002E00E20F8BD06728169002902D060
:106C4000C169002900D1067500F0DCF83C493031FB
:106C5000084610380160203181603021503801F041
:106C600094FA3748217830380170A1788170E17842
:106C7000C170617841706269216942610161E268B5
:106C8000A168C26081600146E369A269CB618A6143
:106C9000616A002917D00146A0310246AC32416238
:106CA0008A60636A1B880B80616A436A898899805D
:106CB0000021436A04E0666AB668765C5654491C53
:106CC0009E888E42F7D8A16A00291CD01C4AA8329F
:106CD00011460C398A608162A36A9B888B80A16A05
:106CE000836A098819800021836A04E0A66AB6686D
:106CF000765C5654491C9E888E42F7D82C210A5D3A
:106D00000F4910390A73216A002909D00B4914313F
:106D10000162226A52884A80216A026A09881180C7
:106D20006168002904D00549C91D4160616841605E
:106D300003482946303801F089FEF8BD4C20002078
:106D40000825002010B50288204C102A15D00021FB
:106D5000112A15D0192A0FD1807900280CD1607919
:106D600001281CD002282DD0032805D12171E2680A
:106D70000846002A00D0904710BD8088208110BDB1
:106D8000617013490979A171808821898842F6D1FF
:106D9000012012E021690029F1D0884710BDA079B7
:106DA000002809D00948193000F0B0F9002803D0B4
:106DB000A079401EA071EBE7022000F02BF800281C
:106DC000E8D110BD022020710320F6E74C200020FE
:106DD0000825002010B5022801D003280ED1084C48
:106DE000207800280AD000202070607900F012F886
:106DF000002803D02169002900D0884710BD000079
:106E00004C20002010B50721014801F0BEF910BD4B
:106E100064200020F0B5624C87B06071002606A89F
:106E2000069602F015FE0127082806D0002878D122
:106E30000698002802D02770AFE00696FFF7E2FF21
:106E4000584D6878002808D06079012816D1E1688B
:106E5000002906D0E770072088476079012802D012
:106E60000CE0E67002E06878002805D04C48193044
:106E700000F04CF9002801D102206071287A002826
:106E800004D16079022801D103206071287D002897
:106E900004D16079032801D166712671E168002967
:106EA0000AD06079022801D0032805D1287800286B
:106EB00002D06078002814D0A6701821684601F02E
:106EC00064F9684606700196067203966079012897
:106ED0000BD0344F0426203702280FD0032850D17E
:106EE0002EE0A77006208847E7E72D48183001906C
:106EF0006846077046820682277145E0288A6946FF
:106F00004882A88908822748203000F03DF90028EF
:106F100005D02878002802D06078002802D002200E
:106F20002EE03BE00220694608721E480397303885
:106F3000C670002101F08AFD00282FD1267120E0C3
:106F4000288B69460882A88B48821648203000F0BA
:106F50001BF9002805D02878002802D06078002886
:106F600001D003200CE00220694608720D48039707
:106F70003038C670002101F069FD00280ED10520CF
:106F800020716079002803D0684673DF002805D19E
:106F9000E168002901D020798847002007B0F0BDC2
:106FA0004C2000200825002070B5054601461C2213
:106FB0000F4801F0D1F80F4C0026267029680029EF
:106FC00007D00822A01801F0C7F8204608307ADF61
:106FD00002E0084808307BDF002808D1401E6080AE
:106FE00004486670044A0021001D01F027FC70BDB2
:106FF000D02500206C20002025710100F8B5224C1E
:10700000028800271F4DE689102A16D029464968B4
:10701000112A21D0122A2DD0502A1CD1C288801DBD
:10702000B24218D1028B022A15D1C27E837E100291
:107030001843C007C00F0CD112E081886980014657
:10704000104808221631103001F086F86F70002EBB
:1070500001D100F01BF8F8BD0020C04368806F70BC
:10706000084601F0C7FC0028F5D0A1690029F2D03C
:107070008847F8BD811D03480822103001F06CF8E4
:10708000E7E700006C200020D0250020F8B5164866
:1070900000F02EF8144D0026103D144C002807D0A7
:1070A000616900291BD001206A461070684615E00E
:1070B0002878002805D06169002910D0684606703C
:1070C0000CE0687800280CD0A1680022686801F004
:1070D0004FFC002803D0A169002900D088472E70FA
:1070E000F8BD6168F1E700007C200020D025002079
:1070F000418805480288914204D34088814201D8E2
:107100000120704700207047742000200021425C5D
:10711000002A01D001207047491C0629F7D300201E
:107120007047000038B51549154A488890420FD07D
:107130004A78144C521CD2B24A70237B934208D333
:10714000083175DF002803D0A169002900D08847E5
:1071500038BD00254D70217C002907D03B2176DF0A
:10716000002803D0A169002900D08847616900295F
:10717000EED068460570884738BD00006C200020BE
:10718000FFFF0000D02500200179002902D1007BFB
:08719000002800D00120704727
:020000040001F9
:10800000B8300020F58001000F81010011810100CE
:108010000000000000000000000000000000000060
:1080200000000000000000000000000013810100BB
:108030000000000000000000158101001781010010
:1080400019810100198101002584010019810100B5
:108050001981010000000000E18101001981010087
:1080600019810100198101001981010019810100A4
:108070001981010019810100198101001981010094
:108080001981010039830100198101001981010062
:108090005983010019810100AD830100198101009C
:1080A000198101001981010000000000000000009A
:1080B00000000000000000000000000000000000C0
:1080C0000348854600F07AF80048004715940100FF
:1080D000B8300020401E00BF00BF00BF00BF00BF7F
:1080E00000BF00BF00BF00BF00BF00BF00BFF1D195
:1080F000704700000321094802680A4302600848EB
:1081000002680A4302600748804707480047FEE7C5
:10811000FEE7FEE7FEE7FEE7FEE70000240500407D
:1081200054050040D1830100C180010030B50B46E9
:10813000014600202022012409E00D46D5409D4241
:1081400005D31D469540491B2546954040191546C7
:10815000521E002DF1DC30BD03460B439B0703D0BC
:1081600009E008C9121F08C0042AFAD203E00B78FC
:108170000370401C491C521EF9D27047D2B201E074
:108180000270401C491EFBD270470022F6E710B572
:1081900013460A4604461946FFF7F0FF204610BD75
:1081A00030B504460020034600E05B1C934203D236
:1081B000E05CCD5C401BF8D030BD0000064C0125D2
:1081C000064E05E0E36807CC2B430C3C984710347F
:1081D000B442F7D3FFF778FF889E0100A89E010004
:1081E000FEB50024FF2501350127264601942846C7
:1081F00001F040FB00280AD0374901204968B0400F
:10820000014204D03548002128183C4301602D1D4F
:108210007F00761CADB2042EE9D3FF207D3001F043
:1082200029FB002807D02E480021016040070443A5
:108230002C48006901902C4F200713D001260025FF
:1082400026420BD02948AA00111808690969C00400
:10825000C00E8903890FD2195268904776006D1CB1
:10826000042DEDD3002C34DA00241F4F01263819D9
:108270004030007A8506AD0E80090090AE40284659
:1082800001F0CEFB002821D0284600F04DFE8000F2
:10829000C0194768002F19D01549A8004018006878
:1082A00001998003800F0E4202D0022802D00DE017
:1082B00003280BD10099032905D102280AD00221F5
:1082C000284601F0C7FA28460099B847641C052CD7
:1082D000CBD3FEBD0321F3E7006300400060004004
:1082E0007C61004000050050EC2500200065004046
:1082F000000700508307FF22DB0E9A408907090E12
:10830000994000280BDA0007000F08388308084856
:108310009B001818C36993430B43C36170478308DC
:1083200004489B001B181868904308431860704766
:1083300000ED00E000E400E010B506490020086010
:1083400048608860C860034940390860486001F0AF
:108350009BFC10BD40110140FEB50020C043124DF2
:1083600002906869019068462E6900F0AFFE0746EA
:1083700000F08EFF0446002F08D002AA0199009851
:1083800000F0C4FE029800F0CDFF06E0029800F075
:10839000C9FF002801D1002C02D0304600F0CCFDEE
:1083A00000206871FEBD0000C420002010B5074801
:1083B0004068002807D08047002803D000221146DB
:1083C00000F0AAF910BD00F0F3FE10BDE820002077
:1083D00010B500F02DFF002805D00E490C4848606C
:1083E000C8130D4988610D48018CC9B201290ED10D
:1083F000818C09070BD1018D0906090F042906D1CB
:10840000808D0006000F02D105490120886010BD53
:10841000DFFF07C000050040006C0040C00F00F007
:1084200000060040FEB5194CA068194D194E0027F2
:1084300000280ED0706840070BD5A76016488069E9
:108440000422C0B2A88069460A700871A96868460B
:108450008847E069002806D07068000603D5E76108
:10846000032001F09DFA606A00280ED07068800534
:108470000BD56762084980390868086002216A469E
:1084800011700190A96868468847FEBD0021004030
:1084900084200020002300400025004030B47446B2
:1084A000641E2578641CAB4200D21D46635D5B00F0
:1084B000E31830BC184702E008C8121F08C1002AA0
:1084C000FAD170477047002001E001C1121F002A55
:1084D000FBD170471CB506490120C86005494870AA
:1084E00003206A4610708968684688471CBD0000F2
:1084F00000200040842000200449002048700449E6
:108500000122CA604A600349086070478420002045
:108510000020004000250040F7B582B00026054647
:10852000167000781446002805D02846039901F0FB
:1085300061F8060008D1A87800281ED02078039F93
:10854000001D1F2802D90C2005B0F0BD684679DF58
:108550000028F9D121780322481C20707A54217810
:108560001922481C20707A542078C1196846008866
:1085700001F0CAFB217840182070E8780223002817
:1085800010D02078039A411C21701354207803994D
:10859000471C012227700A542078EA78471C039967
:1085A00027700A546868002815D0002141562078A9
:1085B0008C460246C01C03991F28C4D8501C20704A
:1085C0008B5422780A23501C20708B5420786246EA
:1085D000431C23700A542889002809D02846009497
:1085E000062202210830039B01F0D0FB0600ABD12C
:1085F000288A002809D02846009407220321103039
:10860000039B01F0C3FB06009ED1288B002809D0F4
:1086100028460094152214211830039B01F0B6FB64
:10862000060091D1286A002805D02246039900F05F
:10863000D5FC060088D1686A002805D02246039937
:1086400000F0A6FF060084D12C20405D002806D053
:1086500022462846039901F031FA0600C7D1304678
:1086600072E70000044842680121C9050B469343A4
:1086700083600A40C26070470005005070B5002456
:10868000064D06E06968E000085C012101F018F879
:10869000641C28788442F5D3002070BD9C20002003
:1086A000F8B515460C460646052A01D20720F8BD46
:1086B00001F0C8F8002803D101F09CF80028F6D199
:1086C000114900204E600C7008618D6048610F4DAB
:1086D0000DE0E00029688019009181786A465170A8
:1086E00000780B4A694601F031F80028DFD12046B6
:1086F000641EE4B20028ECD10348064A00210C3085
:1087000000F09CF8F8BD00009C200020849E010031
:10871000659101006D900100BFF34F8F034902483E
:10872000C860BFF34F8FFEE70400FA0500ED00E0DC
:1087300070B50F4B05241D785E78AE4215D01D78BC
:108740001C789E88B44201DA641C00E000241C708E
:108750005C88DE686C43A41904609B68E800C41858
:10876000A4880C80185800241060204670BD0000BA
:10877000B4200020F8B51C4C944663880D469942FD
:1087800030D81A4A26786178A788B94201DA491C9C
:1087900000E00021C9B2B14222D061786678BE42C1
:1087A00001DA761C00E000266670914218D0CE00F7
:1087B000A7686246BA5100280DD0002D0BD0E268A0
:1087C00059438B1801462A461846FFF7C5FCA06896
:1087D0003018858002E00020F11988800020F8BD63
:1087E0000420F8BD0920F8BDB4200020FFFF0000E0
:1087F0000EB504E068468188029A0098904702AA64
:1088000001A96846FFF794FF0028F3D00EBD0000D1
:1088100030B5CB0008339DB293070024002B01D064
:10882000072030BD044B9A605219DA605C701C70EE
:1088300058809980002030BDB420002070B5114CC4
:10884000A568002D06D0002A06D0002804D00023F9
:10885000247809E0082070BD072070BD24265E43FF
:10886000AE5D002E04D05B1CA342F7DB042070BD7C
:10887000242401265C432E5564196170A2610360B3
:10888000002070BDC420002010B50446082904D083
:10889000002211461046FFF73FFF216860688847B5
:1088A00010BD00001CB501910090034A08216846E4
:1088B000FFF760FF1CBD000089880100FFB5980725
:1088C000002481B01E4615460F4600280BD1002E0D
:1088D00009D001F0D1F822490A9888610F70324618
:1088E00000208E6008E0072005B0F0BD242343433C
:1088F000D4549B181C75401CB842F7DB2420474316
:10890000BB19032048700F461846CB601946183033
:10891000002218232E465E43D3005B181C705C7047
:108920009D7058603018521C032AF5DB0020C043AC
:108930003861BC70FC7001240A48240504600321DE
:108940001420FFF7D7FC08480460084C0198A06089
:1089500003211120FFF7CEFC606878610020C3E797
:10896000C420002080E200E000E100E000150140AA
:10897000FEB504461D48174682680D46002A0CD0F5
:1089800001788C4201D2052D01D20720FEBD21467F
:1089900024235943535C012B01D00820FEBD8818C5
:1089A000407801281DD0002601F0B4F9C0000F491D
:1089B0000190C9684018694601F0D6F9002812D024
:1089C000012101700A49446049680830E2C0074942
:1089D0000198C96841180098487001F0E3F8002038
:1089E000FEBD2E46E0E70420FEBD0000C4200020AE
:1089F00000150140F8B5144D0446A868002809D0B8
:108A000029788C4201D30720F8BD24216143405CC2
:108A1000012801D00820F8BD01F07CF9C600E86803
:108A20006946301801F0A0F900280AD0022101702F
:108A30004460E86831180098487001F0B3F80020ED
:108A4000F8BD0420F8BD0000C420002070B50C461D
:108A500092B000216A46117007251171002809D0D3
:108A6000C17849070CD502A9FFF756FD002808D1A7
:108A700002AE00E00026002C0ED0E078002802D0E4
:108A8000284612B070BD01AA0AA92046FFF744FD8E
:108A90000028F6D10AAA00E000226846037901788E
:108AA000304672DFEDE710B5044600F007FF2046C0
:108AB000FEF7A4FA2046FEF745F910BD1CB50023C9
:108AC00048221549082001F047F8002803D0002269
:108AD0001146FFF721FE00200090694601900870C2
:108AE000684660DF002803D000221146FFF714FE1D
:108AF0000A4801F027F8002803D000221146FFF7AA
:108B00000BFE074801F040F8002803D00022114670
:108B1000FFF702FE1CBD0000D4230020A78A01003D
:108B20009D9B0100F8B507460024224802E0641C22
:108B3000042C19D2A2008258BA42F8D1042C13D2C4
:108B40001D4E1E4DF069002928D001290DD00229A3
:108B50000AD16000201840194578002D04D0F16832
:108B6000002901D028468847F8BD610062182946CF
:108B7000AD5C511800914978002909D071680A222A
:108B800051430D4A521CFFF7F3FE002800D17770C5
:108B900000988178084810300155DEE7FFF72AFF7A
:108BA00005486100611810304919005D8D78A842B0
:108BB000D3D0F8BD549E01002C200020CC240020EE
:108BC00070B50023042811D2440004190D4D012A68
:108BD00002D101290DD0002246008019094E8019CA
:108BE00000290CD0012906D0022906D007231846F7
:108BF00070BD0D30C2B22A55F9E74270F7E78270B6
:108C0000F5E70000CC24002010B5054A0146127A91
:108C10000020D20702D0084600F054F810BD000032
:108C20002C20002070B50E46204905464E608D6010
:108C30000020CA60A9071ED5002401221146204643
:108C4000FFF7BEFF641C042C02D20028F5D012E00E
:108C5000002810D1720804211548FFF721FD0028D3
:108C600009D1FFF70BFD002805D11048114A00215A
:108C70001C30FFF7E3FDE90706D00F220E4952052D
:108C80008A600023CB608A6100280DD107480B4A17
:108C900000211430FFF7D2FD002805D10348084A0F
:108CA00001211830FFF7CAFD70BD00002C20002004
:108CB000649E0100B58E010000050050799201000C
:108CC00065860100FEB5784906464F684B690093FA
:108CD000BB00FB1800200122019352050546734C8E
:108CE0003300FFF7DBFB180D13133749596C828EE5
:108CF000858E97A1A5A5A5A5A5C3C8CDD4DADA12FE
:108D00000B225205A260E5600D70FEBD05208005B6
:108D1000A060E56060680F235B055840800209D5BC
:108D2000A260E560022E02D1E120C0000AE07D20B1
:108D3000400107E0E260A560022E01D1C82001E0F9
:108D4000FF2091300E706421FFF7F0F97843002284
:108D5000014646E005208005A060E56060680F23BD
:108D60005B055840800204D5A260E56019204001EF
:108D7000E8E7E260A560E1E705208005A060E56026
:108D800060680F235B055840800202D5A260E56051
:108D9000CDE7E260A560D3E705208005A060E5602F
:108DA00060680F235B055840800202D5A260E56031
:108DB00001E0E260A5600E707900002211E005205C
:108DC0008005A060E56060680F235B055840800265
:108DD00002D5A260E56001E0E260A5600E700022AD
:108DE00039460098FFF7C4FDFEBD05239B0544E00E
:108DF0006068012189050A468243A2600840E0605C
:108E000010E061680120800502468A43A2600140AB
:108E1000E160E4E761680120800502468A43A260C0
:108E20000140E1600199C8E70F214905E1601BE0BD
:108E30000F468869FFF7DEFD11218A1B1C4E01D009
:108E4000002802D0A660E560FEBD012A0BD91046BD
:108E5000C82148436421FFF769F97968002241433A
:108E6000B869FFF785FDE660A560FEBD0F225205DB
:108E7000A260E56015E007239B05A360E5600EE0B6
:108E80000D225205A260E5600122920507E003224F
:108E9000D205A260E560921001E00F225205E26067
:108EA000A5600E70FEBD00002C20002000050050C3
:108EB0000000800010B500780221FFF733FE10BDDE
:108EC000054900228300D2435B185A60042802D36C
:108ED0000818403002717047EC250020F0B50025DD
:108EE000ED43002A02D00023042601E004230926D2
:108EF0000C4C05E09F003F197F687F1C04D05B1C71
:108F0000B342F7D32846F0BD26185DB2203635723D
:108F10009E0036197160002AF4D1E11840310871C1
:108F2000F0E70000EC250020024909182820085627
:108F300070470000EC250020F8B5224801694A1C62
:108F40003DD024225143826889184E681E494C68DE
:108F500047690079E11B0D022D0AED1C002814D190
:108F600001201A4A00045060184A403A50601849DB
:108F700040000860174908601749012008602F2049
:108F8000FFF7A8F80F4901200871B54200D2354615
:108F9000E81900020C49000A403108600A49496892
:108FA000001B091B0902090A0002000AC91C8142B0
:108FB00004D901200649400480390860F8BD00F05A
:108FC0005BFDF8BDC42000200015014040130140A6
:108FD00080E200E000E100E000100140F8B50D463D
:108FE00011780646881D14461F2801D90C20F8BDAB
:108FF00033880720062BFAD31927FF01BB4202D979
:10900000164A9342F3D17288062AF0D3BA4202D9A3
:10901000124FBA42EBD1114FBB4203D0BA4201D03A
:109020009342E4D8481C052220706A54207812220A
:10903000411C21702A5420784119308800F064FEC8
:1090400021784018C0B220704119708800F05CFE91
:109050002178401820700020F8BD0000FFFF0000BC
:1090600010B500221146FFF757FB10BDF8B50026DA
:109070000124154D23E06968F0004718387821462F
:109080006A698140114218D08A436A6100F0A8FBE6
:109090003A7821462B699140194003469340994202
:1090A0000BD17978012901D0012100E000217B68F2
:1090B0004140002B01D010469847761CF6B2287824
:1090C0008642D8D3F8BD00009C20002010B50E4980
:1090D00000238A78CC78A24212D0521CD2B28A7075
:1090E000022A00D18B708A78074B92001C339A5861
:1090F0000260486910180002000A4861012010BD92
:109100000360002010BD0000C4200020F7B5144CFF
:109110000025A76823691EE024215943C9194E6818
:10912000864202D9301A486017E0801B7519002664
:109130004E600E750E699C460B6AB646002E0AD02C
:10914000019E76193602360A8E607646CE60166823
:109150000E6261461160591CDED12361FEBD000024
:10916000C420002070B50646104C0125B540E068CB
:10917000FFF740FC00280CD16169294207D1304635
:1091800000F02EFB0028206904D0284303E0A94307
:10919000616170BDA843206160690022284360615D
:1091A000A168E068FFF7E4FB70BD00009C20002090
:1091B000F8B51E4C2078002837D02069002807D049
:1091C0000026E068002805D00025002E04D013E01A
:1091D0000126F6E70125F8E7684651DF052806D0A5
:1091E000002806D000221146FFF796FA04E0012677
:1091F00002E0216900988847002D12D160886946F5
:109200000880A06861DF052806D0002806D000226B
:109210001146FFF781FA04E0012502E0E168A06849
:109220008847002ED8D0002DCFD0F8BDE8200020F0
:109230001048018CC9B2012917D1818C090714D1BA
:10924000018D09060A0F03D1828D1206120F0ED06E
:10925000090F012903D1828D1206120F07D00329AD
:1092600003D1808D0006000F01D00020704701203F
:1092700070470000C00F00F010B50448017AC9071C
:1092800002D00078FFF71EFD10BD00002C2000204A
:10929000F8B5234801690091457833E02048E9009A
:1092A000C0680E1834782AE0182060437168641C86
:1092B0000818B178E4B2A14200D100240178022953
:1092C00002D003291BD113E0154A4068242192687B
:1092D00041438F18397D002911D000F09DFC0020FA
:1092E00038750CE024277843C0180275006A03E043
:1092F0000B4900228B680869471CF3D1086170781C
:10930000A042D1D128466D1EEDB20028C6D1044836
:1093100001690098814201D00120F8BD0020F8BD0C
:10932000C4200020F8B504463848002701690091A0
:1093300046785CE03548F100C2688D1851E0601C49
:1093400007D0324A24209268604321468018046A7C
:1093500024E02878182141436A68401CC0B25218A2
:109360002870A978884200D12F70284B516824209A
:109370009B684843C0181378012B34D1037D002B20
:1093800031D193688360D368C36013690361526904
:10939000C2611E4A5279002A00D087601B4B826846
:1093A0005B6996469C46D31A1A02194B120A9A42D6
:1093B00002D2C368D21808E0724663469A1A1202B3
:1093C000C368120A934202D99A1A426000E04760C9
:1093D00087600122C7600275921E0262084600F093
:1093E000E9FB601CABD1287869788842A7D1304668
:1093F000761EF6B200289DD104480169009881428A
:1094000001D00120F8BD0020F8BD0000C4200020DC
:10941000FFFF7F0096B0524805220090514B114645
:109420000020FFF74BFA002803D000221146FFF777
:1094300073F9FFF743FB00224B490320FFF7F2FBD0
:10944000002803D000221146FFF766F9474A0A2197
:109450000820FFF7DDF9002803D000221146FFF7AE
:109460005BF91120694608720C2241A102A87CDF39
:10947000002803D000221146FFF74EF90024FF20F8
:109480009130009469460194088042004A808C80A3
:10949000C88068467ADF002803D000221146FFF713
:1094A0003BF9302101A8FEF770FE022168460171E8
:1094B000012585710621C1718582314806902021E0
:1094C0000DA8FEF762FE08A8057740201090B42092
:1094D00011902C4B0DAA0021009401A8FDF790FBE0
:1094E000002803D000221146FFF716F91C21684618
:1094F000FEF74BFE0520C00301900F2000040290F0
:109500000094032168460173C48104741E480590C9
:109510001E4806906846FDF747FD002803D000224C
:109520001146FFF7F9F81649E122091D087828438A
:109530001040DF220C3010400870072048701020C7
:1095400088700220FDF766FC02E0FFF751F948DF62
:109550000028FAD000221146FFF7DEF8F5E70000F8
:10956000A588010000210020CD0C00001C24002053
:1095700054656D705F307831383030300000000055
:1095800002200020899801007D990100619001006E
:1095900070B5054600790E46801C1446C0B211789D
:1095A000821C8A181F2A01D90C2070BD0A46491C4A
:1095B0002170401CB0542078FF22411C217032548D
:1095C00020788119288800F09FFB21784018C0B2CC
:1095D0002070AA88002A09D0A968002908D080191B
:1095E000FEF7BAFD2078297940182070002070BD60
:1095F000072070BDF8B514780746A01C15460E4626
:109600001F2803D87878801C1F2801D90C20F8BDAA
:109610001D20001B80B26946864608803019801CD8
:109620007DDF0028F3D13878022805D1684600880C
:10963000704501D8092107E078780821002801D079
:10964000704501D968460088421C3255641CE2B25C
:10965000B1542978801C081828700020F8BD00003B
:109660008207D30EFF229A408907090E10B5994050
:1096700000280BDA03071B0F083B9C080C4BA400C7
:10968000E318DC6994430C43DC6107E08408094B70
:10969000A400E418236893430B432360C106C90E5A
:1096A00001208840044908600449086010BD00009A
:1096B00000ED00E000E400E080E200E000E100E016
:1096C00070B50D46064600F0ABF90124002830467F
:1096D00018D0FFF729FC1849001F08184030007AFD
:1096E0008009032802D0012805D006E0134800694C
:1096F000B440204201D1022100E00321304600F0B5
:10970000A9F870BD00F098F90028FAD03046FFF7AC
:109710000BFC8100CA1D0A4BF932C9180B6992B2C1
:1097200023430B610749511800220A60002DE8D03D
:1097300084400548446070BDEC25002000050050C1
:10974000006500400060004000630040F8B5204F15
:109750000D4604463819282141560026C8171346DD
:10976000401C01D0082630E0EA7819462046FFF771
:10977000B5FB411C28D0174BAA78A100C918002AB4
:1097800003D00A6802239A4301E06A7892000A60D3
:10979000E978002910D082000F4829781018026952
:1097A0000E4B1A400261E206D20C8907890B0A436C
:1097B00001690A43026108E0381840302A780179CB
:1097C00092011143017100E004263046F8BD00000B
:1097D000EC2500200007005000650040FFE0FCFF82
:1097E00003490969C140C807C00F00D00120704774
:1097F0000005005070B5114D2878002801D00820D0
:1098000070BD0020411E2A182032401CC0B21172C7
:109810002028F8D300242046FFF752FB641CE4B252
:10982000092CF8D301210620FFF71AFF0120044973
:10983000C007486001202870002070BDEC25002082
:109840000063004002480078002800D001207047E3
:10985000EC250020820006481018026803231B0430
:109860009A430260026809040A43026070470000DC
:1098700000070050034940180068012800D000206C
:10988000704700000060004010B5002809D0022891
:1098900006D1FFF7B9F90EE000221146FEF73CFFB2
:1098A00010BD0020FFF7B0F9002803D000221146B8
:1098B000FEF732FF3CDF0028EED110BD70B52D4D14
:1098C000044601882888142931D00BDC102918D0CF
:1098D000112922D0132913D12B461433AA1D00219C
:1098E0007FDF07E017291BD0522909D1032300226B
:1098F0001146A9DF002803D000221146FEF70CFF15
:1099000070BD0720FFF780F9002803D00022114620
:10991000FEF702FFA088288070BD0020C043FAE750
:1099200014480622A11D0B30FEF716FC70BD204620
:109930000A2211490E30FEF733FC002817D0002010
:109940000C490B310B791946014001D00A491239F3
:109950009A07D20F024001D0074A0A325B07DB0F99
:10996000034001D0044B2133288882DFC2E7012065
:10997000E6E7000000200020A223002010B50078B8
:10998000002809D105483B21008876DF002803D054
:1099900000221146FEF7C0FE10BD0000002000208E
:1099A00070B5022401221B4D1B4E1C490300FEF71B
:1099B00075FD05040C2619200B004878012818D0E5
:1099C000022801D10320487070BD4878002802D0D9
:1099D0000328F9D104E00420286032604A7070BD89
:1099E0004C7070BD4878012806D0022804D00328A6
:1099F000F7D1FEF781FD70BDFEF76CFD70BD4878B4
:109A00000128FBD14878022800D0B2608878E8614C
:109A1000E6E70000002500400020004084200020F0
:109A20000449081828214156042901DB0120704708
:109A300000207047EC2500200449081828214156D1
:109A4000042901D20120704700207047EC25002036
:109A500007490978002906D0002806D00549497829
:109A6000016000207047082070470E2070470000FA
:109A7000902000203C26002070B501240B49600492
:109A800008600B4940108860094940398860094DD9
:109A90006C602F20FEF71EFBAC60074D00242F20CA
:109AA0006C61FEF717FB2C7170BD000080E100E0D7
:109AB0004013014000100140C4200020F7B582B0DF
:109AC00002981446806A0F46002833D00298002579
:109AD0002030009028E00298816A0C2068430E181C
:109AE000217830794A1C2270C01C785420781622C4
:109AF000411C21703A542078C119308800F004F9D3
:109B000021784018C0B22070B288002A09D0B1680C
:109B100000290FD0C019FEF71FFB207831794018BB
:109B200020706D1C0098EDB2007BA842D3D80020B5
:109B300005B0F0BD0720FBE710B508461146C0464A
:109B4000C04610BD002803D00249C86000207047FD
:109B50000E207047E820002070B5002901D08C0746
:109B600001D0072070BD064C0125A1606280054927
:109B7000636010DF0028F5D1257016202EDF70BD40
:109B8000E8200020399B0100002803D00249086129
:109B9000002070470E207047E820002010B5FDF728
:109BA00019F910BD01200249000508607047000046
:109BB00000E200E0F0B5174F2421BC6841430D19C5
:109BC00039694A1C09D024224A4316196B68726805
:109BD000934204D8D21A726029623861F0BD0A46F5
:109BE00002E00A46396A9B1B4E1C0BD024264E43CA
:109BF00037197E689E42F4D324264E43361977687F
:109C0000FF1A77606B60296224214A4311190862A8
:109C1000F0BD0000C420002070B5194C2269A56871
:109C20001346114606E0814207D00A4624267143B6
:109C30004919096A4E1CF6D170BD002EFCD08A422B
:109C40000CD1242043435819006A2061401C05D1DF
:109C50000C4B012098600023636160712420414314
:109C60004819242341685A43006A52191062421C61
:109C7000E2D024225043401942685118416070BD1F
:109C8000C420002000100140F8B51D4C2569681C57
:109C900035D01C48002640686169401A07023F0A17
:109CA00019E024204543A0682A185068B84214D807
:109CB000A3693F1A8619156A002B09D0D1699069EA
:109CC0009847002807D000221146FEF725FD02E044
:109CD0009169D0698847681CE3D1A178E078814216
:109CE00006D1401CC0B2E070022801D10020E07013
:109CF00003490006800D1C310E50FFF753FFF8BDDD
:109D0000C4200020001501400870000A487002209D
:109D10007047000012494868C005C00D19D01038BE
:109D200040B2002807DA0207120F083A92089200A0
:109D30005118C96904E081080A4A8900891809682C
:109D40008007C00EC1400806800F012803D00328F9
:109D500003D00220704700207047012070470000A8
:109D600000ED00E000E400E042788378521C93426A
:109D700000D100220378934201D1002070470A608D
:109D8000416840781822504308187047F8B51546C6
:109D9000069C1E4607460222009400F00AF800289E
:109DA00006D13346102229463846009400F001F8C7
:109DB000F8BDFFB583B0074600200C9C8646267888
:109DC00005463AE07868A90041180A88684682800A
:109DD0004988C1800022694601A865DF002810D1AA
:109DE000684601780598814226D17046002801D046
:109DF000002200E002222078891841181F2902D988
:109E00000C2007B0F0BD7146002908D1401CC0B23B
:109E1000411C069B049A21701A5401208646217821
:109E200006980A18694601A865DF0028E9D1694645
:109E300020780978401820706D1C3888A842C1DC51
:109E40007046002804D020780699801B401E885553
:109E50000020D6E7110000001200000013000000EF
:109E60001400000011000300258B01001200030004
:109E7000258B010013000300258B01001400030053
:109E8000258B010003000000A89E01000020002097
:109E900000010000B6840100A89F010000210020FD
:109EA000B80F0000C6840100FFFF0F18010000007A
:109EB00000000000000000000000000090230020CF
:109EC000AC230020C323002000000000000000009D
:109ED0000000000000000000000000000000000082
:109EE0000000000000000000000000000000000072
:109EF000000000000000000000000000FFFF000064
:109F00000000000000000000000000000000000051
:109F10000000000000000000000000000000000041
:109F20000000000000000000000000000100000030
:109F3000FFFF000000000000000000000000000023
:109F40000000000000000000000000000000000011
:109F50000000000000000000000000000000000001
:109F600000000000000000000000000000000000F1
:109F700000000000000000000000000000000000E1
:109F800000000000000000000000000000000000D1
:109F900000000000000000000000000000000000C1
:089FA000000000000024F400A1
:04000005000180C1B5
:00000001FF
