:020000040001F9
:10D00000E830002065EC01007FEC010081EC0100BC
:10D010000000000000000000000000000000000010
:10D0200000000000000000000000000083EC010090
:10D03000000000000000000085EC010087EC01000A
:10D0400089EC010089EC010089EC010089EC010008
:10D0500073D4010000000000A5D7010089EC010095
:10D0600089EC010089EC010089EC010089EC0100E8
:10D0700089EC010089EC010089EC010089EC0100D8
:10D0800089EC0100CBDB010089EC010089EC010097
:10D09000E1DB010089EC010041EC010089EC0100B9
:10D0A00089EC010089EC0100000000000000000094
:10D0B0000000000000000000000000000000000070
:10D0C0000348854601F070FE0048004757D1010033
:10D0D000E8300020401E00BF00BF00BF00BF00BFFF
:10D0E00000BF00BF00BF00BF00BF00BF00BFF1D145
:10D0F00070470000401E00BF00BF00BF00BF00BF60
:10D1000000BF00BF00BF00BF00BF00BF00BFF1D124
:10D1100070470000056885F308884068FF2464B202
:10D12000EFF30585002D01D1A646004725460646AA
:10D1300021273FBAF0B40024002500260027F0B4D0
:10D14000F92040B2004700000A4610B50146594890
:10D1500000F0E6FB10BD08B55748C169B1295BD0A6
:10D1600000255648032606600120554C4005E06026
:10D1700052480C300660182000F08AF84F480830FA
:10D180000660172000F084F84E481D21406909030D
:10D19000884204D000221146104600F0C1FB012055
:10D1A0000007006901218902884204D0002211464B
:10D1B000104600F0B5FB44480090444B0522032183
:10D1C000002000F034FD002803D00022114600F0BA
:10D1D000A7FB3A493E48091F086001F03DFA01F0FB
:10D1E0007AFA0126F60500281AD0E66001F082FAE4
:10D1F000002803D00022114600F092FB00F04DF809
:10D2000001F08AFA002803D00022114600F088FBC2
:10D21000172000F03DF80AE001250021C161A0E7D8
:10D2200000F03BF82B4841684205114341602069FA
:10D23000000DC007C00F04D000202843264D07D1A1
:10D2400001E00120F9E7284601F062F900280BD13E
:10D25000E66001F007FA002803D00022114600F032
:10D260005FFB172000F014F8284601F051F9002860
:10D2700006D001F030FA002802D1284601F0FEF96C
:10D28000BFF34F8F16491548C860BFF34F8FFEE7B5
:10D29000012181400A488160704710B5114A14216C
:10D2A000082001F0B5F8002803D00022114600F054
:10D2B00037FB10BDEFBEADDE000500405407005047
:10D2C00000050050001000106BE00100B0200020AD
:10D2D0000C00030000060040008001000400FA0575
:10D2E00000ED00E0F022002031B5054C04E0401EC6
:10D2F00000902046FFF7EEFE00980028F7D138BDD9
:10D30000E70300008207D30EFF229A408907090E27
:10D3100010B5994000280BDA03071B0F083B9C0847
:10D320000C4BA400E318DC6994430C43DC6107E078
:10D330008408094BA400E418236893430B4323603B
:10D34000C106C90E012088400449086004490860EC
:10D3500010BD000000ED00E000E400E080E200E02D
:10D3600000E100E06E490028C86101D0002070474C
:10D370000E207047F0B500282FD0694DA9680A0229
:10D3800001688B0067495B181A606A68C36892007D
:10D390009B005B181A6042680024920052181460C7
:10D3A0008268920051180C605F4AC16851618168BF
:10D3B0009160416811610168D16094635A494031BC
:10D3C0008C60067C0023002E0ED0012E07D0022E8A
:10D3D00007D0032E07D00720F0BD0E20F0BD02239A
:10D3E00002E0042300E006234F4E477CC036002FA6
:10D3F00001D101273B434B61837CCB61C07C306012
:10D400004A48446084624A49042008602C704948B4
:10D410000168C023090A0902194301604649102026
:10D420000860474B45495960464908600220106032
:10D430002046F0BD70B500280ED000290CD0384C25
:10D440002578002D0AD0012D11D0022D06D0032DF4
:10D4500004D00324204670BD0E2070BD626121619E
:10D46000E060A3610024012000F02AF8F2E708241C
:10D47000F0E770B52D4CA06A0026294D002814D085
:10D48000A6622878012810D12748E9684030416019
:10D4900025492A694A63AA698A63696981602A49B8
:10D4A00001208862022000F00BF86068002806D096
:10D4B00066602878022802D1032000F001F870BDD0
:10D4C00010B51749087000F001F810BD3EB5144CB6
:10D4D00022780121012A15D02046C069022A14D0E1
:10D4E000032A0ED16A4611700F49C96B01910E498A
:10D4F0004031C968029100280CD06B4607CBE36924
:10D5000098473EBD104841623EBD00216A461170F9
:10D510000191EFE700221146104600F001FAECE716
:10D52000002000200007005000450040004100405E
:10D530000042004004E400E080E200E00204000059
:10D540000043004000E100E000400040F8B5012445
:10D550000546240720690A4681B2206980B28018F6
:10D56000401E01F0E7FBC3B20022214821491646C4
:10D5700013E0022747600F68002FFCD085600F681A
:10D58000002FFCD046600F68002FFCD027693F04B5
:10D59000BF0CBF007D19521CD2B29A42E9D3F8BD2C
:10D5A000F0B59B0800249B001D1823461CE008785A
:10D5B000114E491C3055641CE4B2042C13D10024D4
:10D5C0000B4F012078600B480768002FFCD03668AD
:10D5D0002E600668002EFCD0054F00267E6006688F
:10D5E000002EFCD02D1D5B1C9342E0D3F0BD00004B
:10D5F00000E5014000E401402020002070470000C9
:10D6000001010101F0B50025ED43002A02D00023FD
:10D61000042601E004230526B94C05E09F003F19CC
:10D620007F687F1C04D05B1CB342F7D32846F0BD53
:10D630005DB2261835769E0036197160002AF5D144
:10D64000E11820310875F1E770B5AD4D2878002854
:10D6500001D0082070BD0020411E2A18401CC0B215
:10D6600011762028F9D30024204600F03CF9641CF0
:10D67000E4B2052CF8D301210620FFF743FE012078
:10D68000A049C007486001202870002070BD9C4858
:10D690000078002800D001207047F8B5984F0D465B
:10D6A00004463819182141560026C8171346401C55
:10D6B00001D0082630E0EA7819462046FFF7A2FF9D
:10D6C000411C28D0904BAA78A100C918002A03D089
:10D6D0000A6802239A4301E06A7892000A60E978B6
:10D6E000002910D082008948297810180269884BD7
:10D6F0001A400261E206D20C8907890B0A430169CC
:10D700000A43026108E0381820302A78017D92012E
:10D710001143017500E004263046F8BD70B50D4692
:10D72000064600F0D1F801240028304618D000F059
:10D73000D5F87349001F08182030007E800903289F
:10D7400002D0012805D006E072480069B4402042AA
:10D7500001D1022100E00321304600F09EF870BDA7
:10D7600000F0A8F80028FAD0304600F0B7F88100A1
:10D77000CA1D664BF932C9180B6992B223430B617B
:10D780006549511800220A60002DE8D084405D48A8
:10D79000446070BD5F490969C140C807C00F00D02F
:10D7A00001207047F8B50024FF25013501272646E2
:10D7B0000094284600F06AF800280AD05149012058
:10D7C0004968B040014204D05348002128183C4326
:10D7D00001602D1D7F00761CADB2042EE9D3FF2021
:10D7E0007D3000F053F8002807D04C48002101603C
:10D7F00040070443474800690090414E200713D07A
:10D800000127002527420BD04048AA0011180869BB
:10D810000969C004C00E8903890F921952689047A4
:10D820007F006D1C042DEDD3002C1EDA3820805DA6
:10D8300001258406A40E8709A540204600F044F87F
:10D84000002812D0204600F049F880008019466870
:10D85000002E0AD02C49A0004018006800998003CF
:10D86000800F0D4202D0022802D0F8BD0328FCD15F
:10D87000032F05D1022807D00221204600F00DF821
:10D8800039462046B047F8BD0321F6E72249401843
:10D890000068012800D00020704782001A48101844
:10D8A000026803231B049A430260026809040A43C6
:10D8B000026070471249081818214156042901D204
:10D8C00001207047002070470D4908181821415663
:10D8D000042901DB0120704700207047084909181E
:10D8E000182008567047064900228300D2435B186F
:10D8F0005A60042802D308182030027570470000CF
:10D9000040240020006300400007005000650040F4
:10D91000FFE0FCFF00050050006000407C6100401B
:10D92000BFF34F8F03490248C860BFF34F8FFEE734
:10D930000400FA0500ED00E08307FF22DB0E9A40A9
:10D940008907090E994000280BDA0007000F0838F4
:10D950008308FB489B001818C36993430B43C361BA
:10D9600070478308F7489B001B18186890430843CA
:10D970001860704770B50124F34960040860F349EA
:10D9800040108860F14940398860F14D6C602F206B
:10D99000FFF7B0FBAC60EF4D00242F206C61FFF768
:10D9A000A9FB2C7170BDF0B5EA4F2421BC6841433E
:10D9B0000D1939694A1C09D024224A4316196B688B
:10D9C0007268934204D8D21A726029623861F0BD3D
:10D9D0000A4602E00A46396A9B1B4E1C0BD02426DD
:10D9E0004E4337197E689E42F4D324264E4336199F
:10D9F0007768FF1A77606B60296224214A43111906
:10DA00000862F0BD70B5D34C2269A5681346114673
:10DA100006E0814207D00A46242671434919096A63
:10DA20004E1CF6D170BD002EFCD08A420CD12420B1
:10DA300043435819006A2061401C05D1C44B0120A2
:10DA400098600023636160712420414348192423B6
:10DA500041685A43006A52191062421CE2D02422E3
:10DA60005043401942685118416070BDF8B5B94C37
:10DA70002569681C35D0B848002640686169401A9D
:10DA800007023F0A19E024204543A0682A1850687D
:10DA9000B84214D8A3693F1A8619156A002B09D019
:10DAA000D16990699847002807D000221146FFF7F6
:10DAB00037FF02E09169D0698847681CE3D1A178FB
:10DAC000E078814206D1401CC0B2E070022801D14A
:10DAD0000020E0709F490006800D1C310E5000F0C0
:10DAE000BDF9F8BDF8B504469A48002701690091D0
:10DAF00046785CE09748F100C2688D1851E0601CE0
:10DB000007D0944A24209268604321468018046A12
:10DB100024E02878182141436A68401CC0B252189A
:10DB20002870A978884200D12F708A4B5168242030
:10DB30009B684843C0181378012B34D1037D002B18
:10DB400031D193688360D368C360136903615269FC
:10DB5000C261804A5279002A00D087607D4B82687A
:10DB60005B6996469C46D31A1A027C4B120A9A426B
:10DB700002D2C368D21808E0724663469A1A1202AB
:10DB8000C368120A934202D99A1A426000E04760C1
:10DB900087600122C7600275921E02620846FFF785
:10DBA00002FF601CABD1287869788842A7D1304643
:10DBB000761EF6B200289DD1664801690098814220
:10DBC00001D00120F8BD0020F8BD654900200860A3
:10DBD00048608860C860624940390860486045E72D
:10DBE000FEB50020C0435B4D029068690190684615
:10DBF0002E6900F038F9074600F052F90446002F6C
:10DC000008D002AA0199009800F092F90298FFF753
:10DC100069FF06E00298FFF765FF002801D1002C9C
:10DC200002D0304600F0ADF900206871FEBDFFB5AE
:10DC30009807002481B01E4615460F4600280BD1D8
:10DC4000002E09D0FFF796FE42490A9888610F70AE
:10DC5000324600208E6008E0072005B0F0BD242386
:10DC60004343D4549B181C75401CB842F7DB242056
:10DC70004743BB19032048700F461846CB6019462E
:10DC80001830002218232E465E43D3005B181C7008
:10DC90005C709D7058603018521C032AF5DB002020
:10DCA000C0433861BC70FC7001242E482405046018
:10DCB00003211420FFF740FE234880380460264CDF
:10DCC0000198A06003211120FFF736FE606878619B
:10DCD0000020C2E770B51F4CA568002D06D0002AB1
:10DCE00006D0002804D00023247809E0082070BD65
:10DCF000072070BD24265E43AE5D002E04D05B1C61
:10DD0000A342F7DB042070BD242401265C432E557A
:10DD100064196170A2610360002070BD0849486801
:10DD2000C005C00D2ED0103840B200281CDA020702
:10DD3000120F083A920892005118C96919E00000C0
:10DD400000ED00E000E400E080E100E0401301406D
:10DD5000001001402420002000150140FFFF7F003B
:10DD60004011014080E200E08108B24A8900891830
:10DD700009688007C00EC1400806800F012803D043
:10DD8000032803D00220704700207047012070470D
:10DD9000FEB50446A848174682680D46002A0CD0F6
:10DDA00001788C4201D2052D01D20720FEBD21460B
:10DDB00024235943535C012B01D00820FEBD881851
:10DDC000407801281DD00026FFF7A8FFC0009A491F
:10DDD0000190C9684018694600F019F9002812D06E
:10DDE000012101709549446049680830E2C09249B8
:10DDF0000198C96841180098487000F02FF8002079
:10DE0000FEBD2E46E0E70420FEBDF8B58A4D04466F
:10DE1000A868002809D029788C4201D30720F8BDD2
:10DE200024216143405C012801D00820F8BDFFF7A0
:10DE300075FFC600E8686946301800F0E8F8002869
:10DE40000AD0022101704460E868311800984870D7
:10DE500000F004F80020F8BD0420F8BD0120784946
:10DE600000050860704710B5734900238A78CC78A4
:10DE7000A24212D0521CD2B28A70022A00D18B70F8
:10DE80008A786D4B92001C339A58026048691018CA
:10DE90000002000A4861012010BD0360002010BD8F
:10DEA000F8B5654801690091457833E06248E900BA
:10DEB000C0680E1834782AE0182060437168641C2A
:10DEC0000818B178E4B2A14200D1002401780229F7
:10DED00002D003291BD113E0574A406824219268DD
:10DEE00041438F18397D002911D0FFF78BFD0020A9
:10DEF00038750CE024277843C0180275006A03E0E7
:10DF00004D4900228B680869471CF3D1086170787D
:10DF1000A042D1D128466D1EEDB20028C6D1464898
:10DF200001690098814201D00120F8BD0020F8BDB0
:10DF3000F7B5414C0025A76823691EE02421594309
:10DF4000C9194E68864202D9301A486017E0801B12
:10DF5000751900264E600E750E699C460B6AB64612
:10DF6000002E0AD0019E76193602360A8E60764659
:10DF7000CE6016680E6261461160591CDED12361C5
:10DF8000FEBDF8B52C4801694A1C3DD024225143FE
:10DF9000826889184E6829494C6847690079E11BF5
:10DFA0000D022D0AED1C002815D10120254A000480
:10DFB0005060244A403A5060214940008031086056
:10DFC000214908602149012008602F20FFF792F8BD
:10DFD000194901200871B54200D23546E8190002FE
:10DFE0001649000A4031086014494968001B091BA2
:10DFF0000902090A0002000AC91C814203D9012052
:10E000000F4940040860F8BDFFF7B4FCF8BD427842
:10E010008378521C934200D100220378934201D1AD
:10E02000002070470A604168407818225043081861
:10E030007047000000E400E02420002000150140AB
:10E0400000E200E04013014000E100E00010014068
:10E0500010B50446082904D0002211461046FFF7E7
:10E060005FFC21686068884710BD1CB50191009075
:10E07000024A0821684600F0DFF91CBD51E00100AA
:10E08000014901607047000000C0010010B5FFF7B2
:10E0900041F810BD10B50446002A02D010880022B5
:10E0A00010E00A48FBE7030A00020343A05C584063
:10E0B00003061B0F43401803584083B21806C00CD8
:10E0C0005840521C8A42EED310BD0000FFFF0000F2
:10E0D00070B500250C290ED3044643180089410071
:10E0E0000919581A0A38C2B21E48022A027002D30D
:10E0F0000A318B4201D2092070BD1B4800F030FE6E
:10E100001A491B480A88824202D02388934217D1B9
:10E110004988814202D06088884211D1144A032381
:10E12000521E20891B03A8420AD96900091949898E
:10E13000914203D09E896D1CB142F4D1002070BD84
:10E140000B2070BD10B50022FFF7A4FF064A5178DE
:10E15000127809021143884201D00B2010BD002023
:10E1600010BD0000482000207C24002080100010FA
:10E17000FFFF0000F7B5644A6846137A012104786E
:10E180009940624B002C1CD0012C1BD11846816099
:10E190005F4D00202E88EF78AC88687128710246A8
:10E1A00086212846FFF776FFA04202D0564900207C
:10E1B0004870554C2078874205D000206060277059
:10E1C00004E0D960FEBD6068401C6060504F0121D2
:10E1D000490286378E420CD8C001884209D2321AD1
:10E1E000802A02D9C019802200E0C019A91D00F0C0
:10E1F000B7FD60680122C0018030B042E2D3002147
:10E200004448802EC2C0AB7803706378437062705C
:10E2100001D93E48816021690029D3D03D48884713
:10E22000FEBD10B53849C96888420FD1FFF7B2FA70
:10E2300000280BD1862336491A46C81AFFF7FAF888
:10E24000002803D000221146FFF76AFB10BD70B50D
:10E25000044686B080780290207801906078009023
:10E26000E078039000216846017401264674FF217E
:10E270008174C174FFF77EF8002803D00022114694
:10E28000FFF74EFB204DA06828612079A8606179D6
:10E29000E960214B03218200D218116086401B489F
:10E2A0008660FFF7F4F9002803D1FFF7CDF90028C5
:10E2B00028D11A481A4A0068059005A9E868FFF7AE
:10E2C000ECF900281ED10121E868FFF727FA15486C
:10E2D000FFF748F8002803D000221146FFF720FB83
:10E2E0000B488621863800F054FD862308491A46DB
:10E2F000C81AFFF79FF8002803D000221146FFF745
:10E300000FFB002006B070BD4C200020000500501F
:10E310000E2500209427002000070050E8ED0100A2
:10E3200023E2010075E1010010B5080003D00022CE
:10E330001146FFF7F5FA10BD0EB530480278002AF5
:10E340000CD02F49012A1FD0032A18D0042A06D046
:10E35000052A03D100F0A5FB00F0BDFB0EBD40680F
:10E36000029180080190684600F026FB0928F5D04C
:10E370000028F3D000221146FFF7D2FA0EBD6846FE
:10E38000019100F0D6FAF3E740680291800801900D
:10E39000684600F05DFB00F044FBE9E770B5044619
:10E3A000006800280FD1207B144D80382870144855
:10E3B0006268A16800F0D4FC606800216860114ABE
:10E3C000084600F039F870BD0EB50F4800F0B0FAFD
:10E3D00001216846817002214170032101700421EE
:10E3E000C1700521417106210171084802906846FB
:10E3F000FFF72DFF00200EBD002070476020002099
:10E40000A427002039E3010029E301009DE3010076
:10E4100030B5CB0008339DB293070024002B01D008
:10E42000072030BD384B9A605219DA605C701C705E
:10E4300058809980002030BDF8B5334C94466388ED
:10E440000D46994230D8314A26786178A788B9427A
:10E4500001DA491C00E00021C9B2B14222D0617842
:10E460006678BE4201DA761C00E0002666709142B2
:10E4700018D0CE00A7686246BA5100280DD0002DF2
:10E480000BD0E26859438B1801462A46184600F023
:10E4900067FCA0683018858002E00020F1198880B0
:10E4A0000020F8BD0420F8BD0920F8BD0EB504E039
:10E4B00068468188029A0098904702AA01A9684696
:10E4C00000F003F80028F3D00EBD70B50E4B052404
:10E4D0001D785E78AE4215D01D781C789E88B442B7
:10E4E00001DA641C00E000241C705C88DE686C4368
:10E4F000A41904609B68E800C418A4880C8018580C
:10E5000000241060204670BD68200020FFFF00003E
:10E5100038B50068401C18D000246846FFF7B0FDED
:10E520000098017801290FD14188002909D081681C
:10E5300003200022C003FFF7ADFD00994988814206
:10E5400001D1012400E00024204638BD70B5904C74
:10E55000054620216068FEF7F9FF002320222946A6
:10E560006068FFF71DF82078012801D10220207093
:10E5700070BD0FB4F8B56846FFF782FD6846027EAD
:10E58000418B0123824CFF258248002A12D0012AA8
:10E5900016D0032A2AD00021022A3AD0052A4AD0CE
:10E5A000042A52D0062A01D104202070F8BC08BCED
:10E5B00004B018474180099981600370057110E02B
:10E5C0004180089A07998918099A89188160A521BC
:10E5D000017005710799C1600899426101610A994A
:10E5E000816123706B48FFF7B1FFDFE700990A787C
:10E5F00002704A88428089688160AA210171079966
:10E60000C16008990161099941610321C903C16190
:10E61000E7E7009A1678A52E09D00670568846803E
:10E62000926882600571C16001614161D9E74180F2
:10E6300081600570F6E7FFF7DFFE002803D00022B7
:10E640001146FFF76DF90320AFE741808160057047
:10E65000009909790171C5E707204D498003486099
:10E660000020704710B500F03BF9002805D1FFF7F6
:10E67000ABFE044600F07CF8204610BD7FB5464B4B
:10E680006C460FCB0FC4684618DF002803D0002269
:10E690001146FFF745F9414900200A683F4B012127
:10E6A00080330C468440144204D0C506ED0E0C465F
:10E6B000AC401C60401C2028F3D30324E403204614
:10E6C00013DF002803D000221146FFF729F9204666
:10E6D000FFF7DCFC7FBD08B56846FFF7D1FC00986A
:10E6E0000178A52904D00079AA2801D0002008BD0E
:10E6F000012008BD10B500F040FA00280BD06420BE
:10E70000FEF7F2FD00F01EFA040003D000221146CD
:10E71000FFF706F9204610BD00B51F4987B0142247
:10E72000103101A800F01CFB0598009001A80FC84B
:10E73000FFF71FFF00F01CF8002007B000BD38B540
:10E7400004466846FFF79CFC0098017821704188D8
:10E7500061808168A16001792171C168E16001690E
:10E760002161416961618169A161C069E06138BD70
:10E7700010B5074C40BF30BF20BFFFF797FE207891
:10E78000022803D0032801D00428F3D110BD0000D3
:10E790007820002068280020ECED010000E100E076
:10E7A00000B5FF4987B0012008700520694608714F
:10E7B0000598009001A80FC8FFF7DBFE07B000BD69
:10E7C00010B5F74C2078002801D0082010BD206932
:10E7D000FFF71BFB002803D000221146FFF7A0F82B
:10E7E0000F21002289042069FFF7D2FA040003D028
:10E7F00000221146FFF794F8204610BD10B5E948F5
:10E80000E74C4068002801D0606900E0A069E06141
:10E8100002206070E168E069FEF798FEE148503040
:10E82000406880470320607010BD00B587B0142297
:10E83000DD4901A800F094FA0598009001A80FC8DE
:10E84000FFF797FEBAE700B587B00121684601716E
:10E85000D34881886846C180D24803214268029229
:10E8600082680392C068C90303460091049002992C
:10E870000198FFF77EFE0020A0E710B586B01421B6
:10E8800001A800F086FA002468460471C448818813
:10E890006846C180C348C06804900598009001A8EC
:10E8A0000FC8FFF766FE204606B010BD00B587B062
:10E8B000032168460171BA4881886846C180B94819
:10E8C0004168029181680391C068049005980090A6
:10E8D0000A46049B02990198FFF74BFE00206DE762
:10E8E00070B50025AE4C0320A570A580C003A061C3
:10E8F0000120000360612046AC4A29461030FFF732
:10E90000E9F9002803D000221146FFF709F80F218A
:10E91000002289042069FFF73BFA002803D0002277
:10E920001146FEF7FDFF0120A5606070002070BD5C
:10E93000704770B542689B48146853689168D26804
:10E9400004604360C26081600078440701D5840799
:10E9500005D19C0703D18C0701D1940701D0062073
:10E9600070BD5B189A188E4D01231B03EA60D942D3
:10E9700002D899008A4201D90C2070BD894C8C497B
:10E98000503421608B496160C10701D08A4804E09E
:10E99000800701D5894800E08948A060687801288F
:10E9A00002D00826304670BDFFF70AFF0600FAD1F4
:10E9B0002168E8688847F5E7F8B5070004D0387A99
:10E9C000800703D01020F8BD0E20F8BD744C60788D
:10E9D000032806D0042804D0052804D0082528469A
:10E9E000F8BD0820F8BD7868E1688600A068801945
:10E9F000884204D90020C043A0600C20F8BDFFF776
:10EA0000DFFE0500FAD1B9683246A368E069FEF777
:10EA1000C7FDA0688019A060E1688842DFD00925A1
:10EA2000DDE710B55E4C0820A168002900D010BDBC
:10EA300061780429FBD15B48A1781030FFF748FBCF
:10EA4000002802D00021A17010BD0521617010BD09
:10EA5000F8B5534C07466078032804D0042804D046
:10EA600008252846F8BD04206070A068002801D061
:10EA70000820F8BDFFF7A4FE0500FAD178688600EB
:10EA8000A0788119402901D90920F8BD454AB96803
:10EA900010321018324600F063F9A0788019A07087
:10EAA000DFE710B53E4C6078052812D1E168A06818
:10EAB00088420ED106206070FFF782FE002807D141
:10EAC000E168E069FFF73EFB002801D10721617092
:10EAD00010BD082010BD10B531484178072901D07C
:10EAE000082010BD0069FFF790F9002803D000222C
:10EAF0001146FEF715FF2B4850308068804710BD47
:10EB0000F8B51C4617460D46064600F065F8002885
:10EB100017D001200003854207D92346291B301B4B
:10EB20001A46FFF7EDFF00280BD13A46294630463A
:10EB300000F05DF8002804D13A462946304600F03E
:10EB40004BF8F8BD00B58DB004A8FFF7F8FD0898A4
:10EB500000280DD0079800280CD007990A98401873
:10EB6000019000210898009180080290684618DF03
:10EB70000DB000BD0320C003F2E700B58DB004A8BE
:10EB8000FFF7DDFD08980028F2D00798002821D073
:10EB900007990A984018032100911D21090311E0EB
:10EBA000802000208828002010EE0100A1E701004D
:10EBB000FDE701002BE8010047E80100ADE8010096
:10EBC0007BE8010002900898019180080390684654
:10EBD00018DFCDE70B98DEE71FB5032301909008FF
:10EBE000039000930291684618DF04B010BD1FB572
:10EBF000012301909008039000930291684618DF6A
:10EC0000F3E7000010B508461146FEF79DFA10BD67
:10EC100038B5134C2078002811D0A06800280ED0F9
:10EC2000684651DF05280AD0002804D0002211468A
:10EC3000FEF776FEF4E7A16800988847F0E738BD54
:10EC400010B507484068002807D08047002803D047
:10EC500000221146FEF764FE10BDFFF7D9FF10BD7C
:10EC6000A02000200321094802680A4302600848E6
:10EC700002680A4302600748804707480047FEE7EA
:10EC8000FEE7FEE7FEE7FEE7FEE7000024050040A2
:10EC9000540500409DEC0100C1D0010010B500F00A
:10ECA0001DF8002805D01F491D484860C8131E499B
:10ECB00088611E48018CC9B201290ED1818C0907D7
:10ECC0000BD1018D0906090F042906D1808D00069C
:10ECD000000F02D116490120886010BD1348018C35
:10ECE000C9B2012917D1818C090714D1018D0906F8
:10ECF0000A0F03D1828D1206120F0ED0090F0129BF
:10ED000003D1828D1206120F07D0032903D1808D03
:10ED10000006000F01D0002070470120704700005E
:10ED2000DFFF07C000050040006C0040C00F00F08E
:10ED30000006004030B50B46014600202022012489
:10ED400009E00D46D5409D4205D31D469540491B1F
:10ED50002546954040191546521E002DF1DC30BD68
:10ED600003460B439B0703D009E008C9121F08C0E4
:10ED7000042AFAD203E00B780370401C491C521E8F
:10ED8000F9D27047D2B201E00270401C491EFBD29A
:10ED900070470022F6E710B513460A4604461946A6
:10EDA000FFF7F0FF204610BD064C0125064E05E09A
:10EDB000E36807CC2B430C3C98471034B442F7D39C
:10EDC000FEF782F924EE010044EE010002E008C8DB
:10EDD000121F08C1002AFAD17047002001E001C1CA
:10EDE000121F002AFBD17047030000000200000040
:10EDF0000000000000000000000000000200000011
:10EE00000000000000000000000000000000000002
:10EE100004000000000000000000000000000000EE
:10EE20000000000044EE010000200020B0000000BF
:10EE3000CCED0100F4EE0100B020002038100000FD
:10EE4000DAED0100000000000000000000000000FA
:10EE500000000000000000000000000000000000B2
:10EE600000000000000000000000000000000000A2
:10EE70000000000000000000000000000000000092
:10EE80000000000000000000000000000000000082
:10EE9000FF01000000000000000000000000000072
:10EEA0000000000000000000000000000000000062
:10EEB0000000000000000000000000000000000052
:10EEC0000000000000000000000000000000000042
:10EED0000000000000000000000000000000000032
:10EEE0000000000000000000000000000000000022
:04EEF0000024F40006
:020000041000EA
:040000050001D0C165
:00000001FF
